:020000040800F2
:1000000080C2012059020008C70B0008BD09000882
:10001000C50B000815030008350F0008000000009C
:10002000000000000000000000000000A101000826
:100030001703000800000000F50100087D0E00080D
:1000400073020008730200087302000873020008BC
:1000500073020008730200087302000873020008AC
:10006000730200087302000873020008730200089C
:10007000730200087302000873020008730200088C
:10008000730200087302000873020008730200087C
:10009000730200087302000873020008730200086C
:1000A000730200087302000873020008730200085C
:1000B000730200087302000873020008730200084C
:1000C000730200087302000873020008730200083C
:1000D000730200087302000873020008730200082C
:1000E000730200087302000873020008730200081C
:1000F000730200087302000873020008730200080C
:1001000073020008730200087302000873020008FB
:1001100073020008730200087302000873020008EB
:1001200073020008730200087302000873020008DB
:1001300073020008730200087302000873020008CB
:1001400073020008730200087302000873020008BB
:1001500073020008730200087302000873020008AB
:10016000730200087302000873020008730200089B
:10017000730200087302000873020008730200088B
:100180007302000873020008DFF80CD000F0B0F82A
:10019000004800476911000880C201207047000034
:1001A0002A4B19680868B0E8F04F80F30988BFF35C
:1001B0006F8F4FF0000080F311887047000000003F
:1001C00006480068006880F3088862B661B6BFF32D
:1001D0004F8FBFF36F8F00DF00BF00BF08ED00E05F
:1001E000DFF80C00016841F470010160704700BF46
:1001F00088ED00E0EFF30980BFF36F8F134B1A68AF
:100200001EF0100F08BF20ED108A20E9F04F10609B
:1002100008B44FF0500080F31188BFF34F8FBFF345
:100220006F8F01F0D3FD4FF0000080F3118808BC00
:1002300019680868B0E8F04F1EF0100F08BFB0EC66
:10024000108A80F30988BFF36F8F70474000002049
:10025000EFF30580704700000648804706480047D6
:10026000FEE7FEE7FEE7FEE7FEE7FEE7FEE7FEE766
:10027000FEE7FEE7A90E00088901000840EA010335
:100280009B0703D009E008C9121F08C0042AFAD24C
:1002900003E011F8013B00F8013B521EF9D2704710
:1002A000D2B201E000F8012B491EFBD270470022B8
:1002B000F6E710B513460A4604461946FFF7F0FF65
:1002C000204610BD30B50B460146002020220124F7
:1002D00009E021FA02F59D4205D303FA02F5491B14
:1002E00004FA02F52844151EA2F10102F1DC30BD2A
:1002F000064C074D06E0E06840F0010394E8070073
:1003000098471034AC42F6D3FFF742FF102900089B
:1003100030290008FEE7704770B50D4604000AD08A
:10032000022C08D0042C06D0062C04D04FF4977170
:100330000BA000F0FDFEA400A4F1C04455B1012DB6
:1003400004D040F22F1106A000F0F2FE206840F029
:10035000010002E0206812490840206070BD0000E2
:100360002E2E5C2E2E5C4C69627261726965735C24
:1003700053544D3332463478785F53746450657209
:100380006970685F4472697665725C7372635C73EE
:10039000746D3332663478785F66736D632E6300F4
:1003A000FEFF0F002DE9F0470446006848B102281F
:1003B00007D0042805D0062803D0A121A9A000F069
:1003C000B7FE606828B1022803D0A221A5A000F0E2
:1003D000AFFEA06838B1042805D0082803D0A321B7
:1003E000A0A000F0A5FEE06828B1102803D0A42149
:1003F0009CA000F09DFE206930B1B0F5807F03D055
:10040000A52198A000F094FE606930B1B0F5004FCE
:1004100003D0A62193A000F08BFEA06930B1B0F507
:10042000007F03D0A7218FA000F082FEE06930B1E9
:10043000B0F5806F03D0A8218AA000F079FE206A71
:1004400030B1B0F5006F03D0A92186A000F070FE96
:10045000606A30B1B0F5805F03D0AA2181A000F0BE
:1004600067FEA06A30B1B0F5005F03D0AB217DA07C
:1004700000F05EFEE06A4FF4804928B1484503D0A1
:10048000AC2178A000F054FE206B30B1B0F5002F05
:1004900003D0AD2173A000F04BFE606B00680F2805
:1004A00003D9AE216FA000F043FE606B40680F28B7
:1004B00003D9AF216BA000F03BFE606B8068401E4B
:1004C000FE2803D9B02167A000F032FE606BC0683F
:1004D0000F2803D9B12163A000F02AFE606B0069E8
:1004E0000F2803D9B2215FA000F022FE606B4069A3
:1004F0000F2803D9B3215BA000F01AFE606B4FF008
:1005000080556E0080694FF0405748B1A84207D02F
:10051000B04205D0B84203D0B42152A000F008FE8A
:1005200020688200A2F1C04211685E480140D4E90F
:1005300001031843D4E9033C43EA0C0318436369FD
:100540001843A3691843E3691843236A1843636A8D
:100550001843A36A1843E36A1843236B18430843FC
:100560001060A068082807D120688000A0F1C04072
:10057000016841F04001016020688200A2F1C042A0
:10058000506800F04043606BD0E9001C41EA0C1158
:10059000D0F808C0B0F80C804FEA0C2C4CEA084C9C
:1005A00041EA0C01B0F810C041EA0C5190F814C0B7
:1005B000806941EA0C61014319435160E06A484592
:1005C00047D1A06B00680F2803D9EC2125A000F0CB
:1005D000AFFDA06B40680F2803D9ED2121A000F0EA
:1005E000A7FDA06B8068401EFE2803D9EE211DA048
:1005F00000F09EFDA06BC0680F2803D9EF2119A061
:1006000000F096FDA06B806948B1A84207D0B042C7
:1006100005D0B84203D0F02112A000F089FD206877
:100620008300A3F1C043D3F804111F480140A06B1D
:10063000D0E9002442EA041284688589240244EA4D
:1006400005448069224302430A43C3F80421BDE8FC
:10065000F08720686FF070418000A0F1C040C0F8C2
:100660000411F4E72E2E5C2E2E5C4C6962726172CE
:100670006965735C53544D3332463478785F5374F4
:10068000645065726970685F4472697665725C7304
:1006900072635C73746D3332663478785F66736D41
:1006A000632E63008000F7FF0000F0CF2DE9F05FBC
:1006B00004464C4800270D46844221D04A488442D3
:1006C0001ED04A4884421BD04948844218D0494829
:1006D000844215D04848844212D0484884420FD002
:1006E000474884420CD04748844209D04648844257
:1006F00006D04648844203D0CF2145A000F018FD23
:1007000028880004000C03D1D02141A000F010FD86
:10071000287948B1012807D0022805D0032803D042
:10072000D1213BA000F004FDE87938B1012805D0C3
:10073000022803D0D22136A000F0FAFC4FF0010AC3
:100740004FF0030B28680AFA07F63040B04243D155
:10075000226879000BFA01F822EA08028946226031
:100760002879216800FA09F00843206028790128D7
:1007700001D0022826D1687948B1012807D0022883
:1007800005D0032803D0E42121A000F0D1FCA0680B
:1007900020EA0800A0606879A16800FA09F008431F
:1007A000A060A87928B1012803D0EB2118A000F09F
:1007B000BFFC6068B04360606068A979B94089B2E5
:1007C00008436060E06820EA0800E060E879E168DA
:1007D00000FA09F00843E0607F1C102FB2D3BDE897
:1007E000F09F0000000002400004024000080240A8
:1007F000000C0240001002400014024000180240A9
:10080000001C024000200240002402400028024058
:100810002E2E5C2E2E5C4C69627261726965735C6F
:1008200053544D3332463478785F53746450657254
:100830006970685F4472697665725C7372635C7339
:10084000746D3332663478785F6770696F2E630039
:1008500070B506463E4814460D46864222D03D48B5
:1008600086421FD03C4886421CD03C48864219D064
:100870003B48864216D03B48864213D03A488642CF
:1008800010D03A4886420DD0394886420AD03948BD
:10089000864207D03848864204D040F2492137A02A
:1008A00000F046FC15B3012D20D0022D1ED0032DE3
:1008B0001CD0042D1AD0052D18D0062D16D0072DCA
:1008C00014D0082D12D0092D10D00A2D0ED00B2DCA
:1008D0000CD00C2D0AD00D2D08D00E2D06D00F2DCA
:1008E00004D040F24A2125A000F022FC04B3092CD8
:1008F0001ED0012C1CD0022C1AD0032C18D0042C92
:1009000016D0052C14D0062C12D0072C10D0082C91
:100910000ED00A2C0CD00B2C0AD00C2C08D00D2C8D
:1009200006D00F2C04D040F24B2114A000F000FCA4
:100930006807C10E8C40E80806EB8000026A0F23AE
:100940008B409A430262016A2143016270BD00003C
:10095000000002400004024000080240000C024077
:10096000001002400014024000180240001C024027
:100970000020024000240240002802402E2E5C2E5F
:100980002E5C4C69627261726965735C53544D33BD
:1009900032463478785F5374645065726970685F6A
:1009A0004472697665725C7372635C73746D333222
:1009B000663478785F6770696F2E6300FFF7EEBB6F
:1009C000F0B59FB001217A2000F080F9012108469E
:1009D00000F0BCF901208DF8400000248DF8424061
:1009E00002258DF841504FF400468DF843000F96D4
:1009F0000FA96748FFF75AFE664F0C2200213846C0
:100A0000FFF726FF0C2201213846FFF721FF0C22B9
:100A100004213846FFF71CFF0C2205213846FFF75A
:100A200017FF0C2208213846FFF712FF0C2209217C
:100A30003846FFF70DFF0C220A213846FFF708FF62
:100A40000C220E213846FFF703FF0C220F213846F7
:100A5000FFF7FEFE4CF233700F908DF840500320EC
:100A60008DF841008DF842408DF843400FA938467B
:100A7000FFF71CFE484D0C2207212846FFF7E8FE31
:100A80000C2208212846FFF7E3FE0C220921284604
:100A9000FFF7DEFE0C220A212846FFF7D9FE0C22C2
:100AA0000B212846FFF7D4FE0C2211462846FFF7FB
:100AB000CFFE0C220D212846FFF7CAFE0C220E2184
:100AC0002846FFF7C5FE0C220F212846FFF7C0FE7F
:100AD0004FF680700F900FA92846FFF7E7FD2F4FC4
:100AE0000C2211463846FFF7B3FEAD140FA9384665
:100AF0000F95FFF7DBFD2A4F0C2211463846FFF712
:100B0000A7FE0FA938460F95FFF7D0FD0F20CDE9BE
:100B100011043C20CDE91304159409201694CDE965
:100B200017400820CDE9194006201E94CDE90004A5
:100B30001B941C941020CDE9024006940594800279
:100B4000CDE90A401D9404940794CDE9084511A805
:100B5000CDE90C4018A80E906846FFF723FC012150
:100B60000620FFF7D9FB104C0E4860600F48A060CC
:100B70000F48E0600F48206000F026F838B1E168C7
:100B8000012088470248183006801FB0F0BDFEE7FC
:100B900000040240000C0240001002400014024019
:100BA00000180240C90B0008B4000020010C000826
:100BB000190C0008150C00084FF0D84121F87E0FE1
:100BC00048887047FEE770470C4910B545F2105051
:100BD00088804FF45A40FFF7EFFF50B94FF45B4065
:100BE000FFF7EAFF802804D14FF45C40FFF7E4FFF1
:100BF00008B1002010BD012010BD0000A40000209D
:100C00004FF0D8405521A0F880104FF42451A0F89F
:100C10007E1070477047000070B50E494FF4305297
:100C20004FF428534FF42C544FF4F0754FF448769A
:100C300040B1012805D10873CA800B814C810E8018
:100C40004D8070BD00200873CA800B814C810D80DF
:100C50004E8070BDA400002010B50446B0F5E06FD2
:100C60000FD0B4F5C06F0CD0B4F5A06F09D0B4F5B7
:100C7000806F06D0B4F5407F03D0792103A000F047
:100C800057FA104804431048046010BD2E2E5C2E05
:100C90002E5C4C69627261726965735C53544D33AA
:100CA00032463478785F5374645065726970685F57
:100CB0004472697665725C7372635C6D6973632EEE
:100CC000630000000000FA050CED00E070B504467A
:100CD0000C480E46044200D124B940F63B010AA05C
:100CE00000F026FA184D4EB1012E04D040F63D0119
:100CF00005A000F01DFA2868204301E02868A04301
:100D0000286070BD00E80B012E2E5C2E2E5C4C6915
:100D1000627261726965735C53544D333246347844
:100D2000785F5374645065726970685F4472697665
:100D300065725C7372635C73746D33326634787899
:100D40005F7263632E6300003038024070B5054661
:100D50000E46400800D125B940F6790109A000F0FF
:100D6000E7F9184C4EB1012E04D040F67A0105A0E7
:100D700000F0DEF92068284301E02068A8432060E5
:100D800070BD00002E2E5C2E2E5C4C69627261726A
:100D90006965735C53544D3332463478785F5374CD
:100DA000645065726970685F4472697665725C73DD
:100DB00072635C73746D3332663478785F72636328
:100DC0002E630000383802400CB5002027490190FE
:100DD00000900A6842F480320A604FF4A0430A6827
:100DE00002F400320092019A521C0192009A12B948
:100DF000019A9A42F3D10A68920334D501200090F7
:100E00001A484030026842F0805202601848026876
:100E100042F44042026015480830026802600268ED
:100E200042F400420260026842F4A0520260031FD2
:100E3000104A1A600A6842F080720A600A689201D9
:100E4000FCD50D4A40F205711160016821F00301E3
:100E50000160016841F0020101600168C1F3810194
:100E60000229FAD10CBD00900CBD000000380240F0
:100E70000070004008544007003C024010B550206C
:100E800080F31188BFF34F8FBFF36F8F01F028FB02
:100E900018B104494FF080500860002080F3118899
:100EA00010BD000004ED00E0124810B5016841F4E7
:100EB000700101601048016841F0010101600E4AB3
:100EC00000210832116002680C4B1A400260031DB9
:100ED0000B4A1A60026822F48022026006480C3035
:100EE0000160FFF771FF03494FF00060803908602F
:100EF00010BD000088ED00E000380240FFFFF6FE64
:100F000010300024C4B04FF44070FFF7A5FEFFF787
:100F100057FD01210803FFF7D9FE054D4FF0FF34BF
:100F2000002322466946286801F048F8F8E70000E7
:100F300028000020FEE700000FB4054B10B503A900
:100F4000044A029800F018F810BC5DF814FB000089
:100F500055110008A000002002E008C8121F08C1B7
:100F6000002AFAD170477047002001E001C1121F2A
:100F7000002AFBD1704700002DE9FF4F8BB09A4645
:100F80000F460546002606E025280BD052460D994F
:100F900090476D1C761C28780028F5D10FB030469C
:100FA000BDE8F08F0024A0460122604900E0044320
:100FB00015F8013F203B02FA03F00842F7D12878E8
:100FC0002E2817D115F8010F44F004042A280ED05A
:100FD0006FF02F022878A0F1300109290AD808EB18
:100FE000880102EB410100EB01086D1CF2E757F8A4
:100FF000048B6D1C287869283ED006DC0028CDD0F3
:1010000063280BD0642804D136E0732810D07528EB
:101010004BD052460D999047761C85E017F8040B8B
:101020008DF8000000208DF80100E946012003E062
:1010300057F8049B4FF0FF3061074FF0000401D4D4
:101040000AE0641C44450DDA8442FADB19F8041006
:101050000029F6D106E0641C8442FCDB19F8041078
:101060000029F8D1264404E019F8010B52460D99E5
:101070009047641EF8D257E001CF4FF00A0B0028CA
:1010800002DA40422D2102E0210504D52B218DF802
:101090002410012103E0E10705D02021F7E70DF13D
:1010A000200908910CE00021F9E701CF4FF00A0B6D
:1010B000F9E75946FFF706F901F1300209F8012D69
:1010C0000028F6D1ADEB090000F1200B600701D438
:1010D0004FF00108D84502DDA8EB0B0000E000202E
:1010E0008046002406E009A85246005D0D9990470D
:1010F000641C761C08988442F5DB04E030205246DC
:101100000D999047761CB8F10001A8F10108F5DCB3
:1011100005E019F8010B52460D999047761CBBF17A
:101120000001ABF1010BF4DC6D1C34E70928010070
:101130000A46014601A0FFF7FFFEFEE766696C65FF
:10114000203A202573202020206C696E65203A20EB
:101150002564000038B504468DF800006946032078
:10116000ABBE204638BD00001CB500224FF488718C
:10117000052000F0FFFE0F4908600F4988680268EB
:1011800042F0807202604868026842F00102026028
:101190004FF6FF70086100210B20CDE900010B46DE
:1011A0004FF4FA7205A1084801F056F900F0C0FDAD
:1011B000FEE7000028000020000000205461736B4F
:1011C0005F496E6974000000050F00082DE9F041C9
:1011D00005460E461648076816480068001D00F0D0
:1011E000E7FB681C38B936B112480168091D12487E
:1011F00000F036FC1AE07C190E4800684460BC42DE
:1012000007D20C480168091D0C48006800F010FC6A
:101210000CE008480168091D0948006800F008FC56
:1012200008480068844201D206480460BDE8F081A5
:1012300054000020400000206C02002048000020E4
:10124000440000207000002010B5044600F014FC9B
:1012500022480068401C214908602148006840B9C4
:101260001F4804600846006801280DD100F04CF9C1
:101270000AE01C48006838B919480068C06AE16A89
:10128000884201D81648046017480068401C164977
:1012900008601649E06A0968884202D91349E06A81
:1012A0000860E16A01EB8101114A02EB8100211D16
:1012B00000F0D6FB00F000FC0A48006868B108485E
:1012C0000068C06AE16A884207D24FF0805009493D
:1012D0000860BFF34F8FBFF36F8F10BD5000002029
:1012E000400000205C0000206C000020580000201E
:1012F0002C01002004ED00E010B500F0BDFB0E4C09
:101300002068A0B90D4800F085FB0C48143000F0AF
:1013100081FB0A48E0601430206100220C210A2081
:1013200000F028FE206010B105A100F02BFCBDE804
:10133000104000F0C1BB00002C000020C4000020C1
:10134000546D72510000000070B523E000F036FDCE
:101350001348006808B9012000E00020054601F0AC
:10136000FFF9BDB900F088FB0D48C068C468201DB6
:1013700000F01EFB0B480068401E0A4908600A483E
:101380000068401E0849086000F096FB204600F007
:1013900056F800BF044800680028D7D170BD00008F
:1013A00058020020500000204C00002030B4026C95
:1013B0000B46002A0BD0C1681144C1604468A142A9
:1013C00001D30168C16030BC1846FEF757BF30BC7E
:1013D00070472DE9F041856B174604460026026CE4
:1013E00082B1C7B1E068FEF749FFE168206C091AD5
:1013F000E1602268914202D26168081AE060022F1F
:1014000016D017E02068A8B9606801F00BF906460D
:10141000002060600EE0A068FEF730FF216CA0683D
:101420000844A0606168884204D32068A06001E09D
:1014300005B16D1E6D1CA5633046BDE8F08110B589
:101440000446206B00F04CFB204600F049FB10BD29
:1014500000BFFFF779FF00F0BDFAFAE72DE9F05F72
:1014600082460F4690469B460A9E0C9C4FEA880196
:10147000A522206BFEF714FFA8F10100216B01EB00
:10148000800929F0070909F0070008B9012000E0E8
:10149000002050B900BF502080F31188BFF34F8F58
:1014A000BFF36F8F00BF00BFFEE7002507E0795D47
:1014B00004F134004155785D00B902E06D1C102D37
:1014C000F5D300BF0021432001550C2E00D30B267D
:1014D000E66266640020A064201D00F0A6FA04F114
:1014E000180000F0A2FA2461C6F10C00A061646249
:1014F0005A465146484600F047FA20600B9808B11A
:101500000B980460BDE8F09F10B5002407E004EBE1
:1015100084010F4A02EB810000F07CFA641C0C2C61
:10152000F5D30C4800F076FA0B4800F073FA0B483C
:1015300000F070FA0A4800F06DFA0A4800F06AFA02
:1015400004480949086004480849086010BD0000C3
:101550002C0100201C020020300200204402002048
:10156000580200206C0200204400002048000020A7
:1015700070B5002441600B4D0061914206D8D11A2C
:101580008269914206D2011D286907E09A4203D27E
:10159000994201D3012403E0011DE86800F048FAF4
:1015A000204670BD2C00002010B5044600F064FAFF
:1015B000A06B28B15FF0000400F07EFA204610BD59
:1015C0000124F9E730B587B02B4D4BE00498002893
:1015D00048DB069C606910B1201D00F0E9F902A803
:1015E00000F0C0F8024604980A283BD2DFE800F079
:1015F0000505053A263705053A260598A1690346EB
:1016000001442046FFF7B4FF00B3616A20468847D3
:10161000E069012826D1002000900598A1690023E7
:1016200042181946204601F043F978B9502080F35A
:101630001188BFF34F8FBFF36F8FFEE70598A0614E
:1016400028B1811813462046FFF792FF0AE0502088
:1016500080F31188BFF34F8FBFF36F8FFEE72046F3
:1016600000F03EFA00231A4604A9286800F0A6FC00
:101670000028ABD107B030BD2C0000202DE9FC4183
:101680000F46054600F09AFB01A800F06BF80446EF
:10169000019818B101F064F8BDE8FC81224EAFB1A9
:1016A00030690068A8B30027291B3A46306800F06B
:1016B0007DFA01F055F80028EED11C494FF080501A
:1016C0000860BFF34F8FBFF36F8FE5E7A542EBD8FC
:1016D00001F046F8F0682746C068C468201D00F095
:1016E00067F9E069012810D1A0692B4641193A46F3
:1016F0002046FFF73DFF40B1002003460146009021
:101700002A46204601F0D4F820B1616A2046884775
:10171000C2E707E0502080F31188BFF34F8FBFF37B
:101720006F8FFEE70127BFE72C00002004ED00E0EB
:101730000A490968096809B9012100E0002121B1BD
:101740004FF0FF31064A116006E004490968C96894
:10175000C868034A416811607047000044000020D7
:101760007000002070B5054600F0B4FE064E044639
:10177000B068844203D200F009F8012000E00020A4
:1017800028602046B46070BD2C000020F8B5194DCB
:101790001FE0C068C4680668201D00F009F9616A8E
:1017A00020468847E069012813D1A0693044B0423F
:1017B00006D924616060211DE86800F039F908E06D
:1017C00000200346014600903246204601F070F8A2
:1017D00038B1E86801680029DBD12969C5E903103F
:1017E000F8BD502080F31188BFF34F8FBFF36F8F88
:1017F000FEE700002C00002008484068401C4FF025
:10180000500080F3118804D0BFF34F8FBFF36F8F68
:10181000FEE7BFF34F8FBFF36F8FFEE77C00002022
:10182000074CE068016841B1C0680021D0F80000B1
:10183000FFF724FFFFF7C6FEF3E701210020F7E7DB
:101840002C0000202DE9F041044600F015F994F930
:10185000455004F1240609E0606A48B1304600F0C2
:1018600033FF08B100F0C4F96D1E6DB2002DF3DC3A
:101870004FF0FF3684F8456000F01EF900F0FCF8E8
:1018800094F9445004F1100709E0206948B1384642
:1018900000F01AFF08B100F0ABF96D1E6DB2002D1B
:1018A000F3DC84F84460BDE8F04100F005B90000C5
:1018B0002DE9F0410446002500F080FA274A02F1A4
:1018C0000801506801F1080360B92548002720F09D
:1018D0000700C1E90007234EC3E90076C0E90036DE
:1018E000012050601F48401E94B30834660704D09E
:1018F00004F00706C6F108063444661E864227D265
:1019000016480968083001E0084631464E68A6428C
:1019100002D20E68002EF7D1994219D005680B68E3
:10192000036048680835001B10280DD90B19586052
:101930000A484C6008305E6800E02046046867682A
:10194000B742FAD31C60036048681168081A106037
:1019500000F006FF2846BDE8F08100008800002066
:1019600088020020F87F01000648006830B1054970
:10197000096801F14800896C491C01600148006850
:10198000704700004000002010B5031F4FF0807426
:101990001C601B1F1960191F044B0B6014390A606F
:1019A000091F6FF0020244380A6010BDF9170008E1
:1019B000D0E9013201699A60D0E901235A604A688E
:1019C000824201D182684A60002202610868401E9A
:1019D000086070470B48C168491CC16000BF00BF68
:1019E00000BF00BF01680A68826100220A60416985
:1019F00082691144416181690269914201D2816920
:101A000001617047000000200148416270470000FA
:101A10000000002000F108014FF0FF32C0E9011280
:101A2000C1600161002101607047002101617047C0
:101A300030B50B685A1C02D000F1080202E00269BE
:101A400004E02246546825689D42FAD953684B60E9
:101A500099608A60516008610168491C016030BD6D
:101A600042684A6093688B6093685960916008612E
:101A70000168491C01607047502080F31188BFF352
:101A80004F8FBFF36F8F0A494868401C4860012898
:101A90000CD10848006810F0FF0F07D0502080F3E9
:101AA0001188BFF34F8FBFF36F8FFEE770470000C1
:101AB0007C00002004ED00E00849486828B1401E81
:101AC000486001D180F311887047502080F311885D
:101AD000BFF34F8FBFF36F8FFEE700007C00002045
:101AE00010B5002817D0A0F1080400F067F90A48E3
:101AF000616800E01046026853688B42FAD32260A6
:101B00000460054861680838026811440160BDE856
:101B1000104000F025BE10BD900000204FF0E020E6
:101B20000249416107210161704700003F900200B6
:101B300010B5FEF78DFB114910280ED300F1E020FF
:101B400090F8F0030A78904207D2502080F3118871
:101B5000BFF34F8FBFF36F8FFEE7094800688968B6
:101B600000F4E060884207D9502080F31188BFF369
:101B70004F8FBFF36F8FFEE710BD00007C00002089
:101B80000CED00E010B5084B002200BF53F83240C6
:101B90001CB1521C082AF9D310BD43F8321003EBD4
:101BA000C201486010BD0000EC00002070B5154671
:101BB0000E460446FFF760FF94F944100020491CCC
:101BC00001D184F8440094F94510491C01D184F8EE
:101BD0004500FFF771FFA06B28B92A46314604F192
:101BE000240000F027F82046BDE87040FFF72ABE29
:101BF00001200149086070476400002070B5044668
:101C00000D4654B900BF502080F31188BFF34F8FA9
:101C1000BFF36F8F00BF00BFFEE7054801681831B2
:101C20002046FFF705FF01212846FFF7CFFA70BDD8
:101C30004000002070B505460E46144655B900BF59
:101C4000502080F31188BFF34F8FBFF36F8F00BF19
:101C500000BFFEE70648016818312846FFF700FF7D
:101C60000CB14FF0FF3621463046FFF7AFFA70BD9A
:101C70004000002070B505462C46002D39D01D4986
:101C8000E06A0968C96A884233D2A06900F000405E
:101C900028B918480068C06AC0F10C00A061E16A68
:101CA00001EB8101144A02EB81016069884201D194
:101CB000012000E00020C0B1201DFFF779FE0D4893
:101CC0000068C06AE0620D49E06A0968884202D98A
:101CD0000A49E06A0860E16A01EB8101064A02EB09
:101CE0008100211DFFF7BCFE03E002480068C06AC6
:101CF000E06270BD400000202C0100205800002050
:101D000050B900BF502181F31188BFF34F8FBFF34B
:101D10006F8F00BF00BFFEE70349096801600349F8
:101D200009684160704700006800002054000020EE
:101D30007CB582251A4800210B462A46CDE90010C1
:101D400018A11A4800F088FB0446012C02D100F0CB
:101D500089FD0446012C15D100BF502080F3118865
:101D6000BFF34F8FBFF36F8F00BF4FF0FF301049AD
:101D7000086001200F49086000200F49086000F04A
:101D800089F80BE054B900BF502080F31188BFF3ED
:101D90004F8FBFF36F8F00BF00BFFEE77CBD000019
:101DA0007400002049444C45000000005114000814
:101DB000700000205C0000205400002002480068F1
:101DC000401C0149086070477800002070B52C481D
:101DD000006818B101202B4908604FE00020294914
:101DE000086029480068046B4FF0A5352068B0F101
:101DF000A53F0BD16068B0F1A53F07D1A068B0F155
:101E0000A53F03D1E068B0F1A53F05D01E480168A9
:101E100034310068FFF7F8FD1C4801680CE051B947
:101E200000BF502080F31188BFF34F8FBFF36F8F37
:101E300000BF00BFFEE7491E01EB8100144A52F8C3
:101E4000200008B9012000E000200028E7D101EBC4
:101E500081020F4B03EB820042685268426000F13E
:101E600008024368934202D1426852684260426865
:101E7000D268054B1A600548016000BF70BD0000C4
:101E8000780000206400002040000020580000205E
:101E90002C0100201CB532480168324A914207D11A
:101EA000502080F31188BFF34F8FBFF36F8FFEE791
:101EB00000682C49491E884207D1502080F31188C0
:101EC000BFF34F8FBFF36F8FFEE72749087801906C
:101ED000FF20087008788DF800009DF800009DF83C
:101EE000002000F0F000904207D0502080F31188CD
:101EF000BFF34F8FBFF36F8FFEE79DF800001B4AC3
:101F000000F0500010700720906005E09DF8003050
:101F10005B008DF80030401E9DF800301B06F5D4A4
:101F2000000200F4E0609060019808700C482030D6
:101F3000016841F470010160016841F07041016085
:101F4000FFF7ECFD00205060FEF74AF908480168F1
:101F500041F040410160FEF733F900201CBD000054
:101F600000ED00E071C20F4100E400E07C000020C1
:101F700034EF00E070B50E46050013D0D6B105FB76
:101F800006F04830FFF794FC040009D004F1480142
:101F900020468EB10160C0E90F56012100F0C4F85F
:101FA000204670BD502080F31188BFF34F8FBFF3E0
:101FB0006F8FFEE70020E4E70060ECE72DE9FF4FBC
:101FC000002683B09B468A46040003D0BAF1000F76
:101FD00008D011E0502080F31188BFF34F8FBFF37A
:101FE0006F8FFEE7206C38B1502080F31188BFF36B
:101FF0004F8FBFF36F8FFEE700F05CFADFF82481AC
:102000004FF000094FF0805748B9059838B150207B
:1020100080F31188BFF34F8FBFF36F8FFEE7FFF799
:102020002BFDA56B45B351462046E668FFF7BEF988
:10203000BBF1000F13D0E660606A50B104F12400D8
:1020400000F042FB28B1C8F80070BFF34F8FBFF318
:102050006F8FFFF731FD012007B0BDE8F08F6D1ED7
:10206000A563206810B9FFF77FFC60602069002835
:10207000EFD004F11000E3E7059808B11EB106E0C7
:10208000FFF71AFD27E06846FFF73AFE0126FFF743
:1020900013FDFFF793FEFFF7EFFC94F94400401C9B
:1020A00001D184F8449094F94500401C01D184F892
:1020B0004590FFF701FD05A9684600F087F9002863
:1020C00020460AD0FFF7BEFB00F04AFB2046FFF790
:1020D0006BFA0028A3D00020BEE7FFF765FAD8B15D
:1020E000206830B9FFF7C8FC6068FFF7C3FDFFF751
:1020F000E3FC04F124000599FFF780FD2046FFF77B
:10210000A1FB00F02DFB002889D1C8F80070BFF3B7
:102110004F8FBFF36F8F82E72046FFF793FB00F0EE
:102120001FFB7CE704ED00E070B50D46040025D0F0
:10213000FFF7A2FCD4E90F20216802FB00116160C7
:102140000021A1632168A1600A46D4E90F01401E65
:1021500000FB0121E16021464FF0FF3001F8440F00
:10216000487004F110008DB1FFF754FC04F1240015
:10217000FFF750FCFFF7A0FC012070BD502080F35A
:102180001188BFF34F8FBFF36F8FFEE721690029DE
:10219000F0D000F099FA0028ECD004494FF08050BC
:1021A0000860BFF34F8FBFF36F8FE3E704ED00E0EC
:1021B0002DE9FF4782B01D468A464FF00008040013
:1021C00003D0BAF1000F08D011E0502080F311883D
:1021D000BFF34F8FBFF36F8FFEE7206C38B15020F5
:1021E00080F31188BFF34F8FBFF36F8FFEE7022D8F
:1021F0000AD1E06B012807D0502080F31188BFF38B
:102200004F8FBFF36F8FFEE700F054F93F4F4FF051
:1022100000094FF0805648B9049838B1502080F337
:102220001188BFF34F8FBFF36F8FFEE7FFF724FCDA
:10223000A06BE16B884207D3022D05D00498D0B182
:10224000B8F1000F1AD01EE02A4651462046FFF78B
:10225000C0F8616A19B104F1240000F035FA20B128
:102260003E60BFF34F8FBFF36F8FFFF725FC012058
:1022700006B0BDE8F087FFF71FFC22E06846FFF7D5
:102280003FFD4FF00108FFF717FCFFF797FDFFF741
:10229000F3FB94F94400401C01D184F8449094F974
:1022A0004500401C01D184F84590FFF705FC04A9C6
:1022B000684600F08BF830B12046FFF7C3FA00F013
:1022C0004FFA0020D4E7FFF7D7FBA06BE16B884201
:1022D00013D1FFF7F1FB04F110000499FFF78EFC16
:1022E0002046FFF7AFFA00F03BFA00289ED13E608F
:1022F000BFF34F8FBFF36F8F98E7FFF7DDFB2046EB
:10230000FFF7A0FA00F02CFA90E7000004ED00E0DF
:102310002DE9F0471F4690468946040003D0B9F1E5
:10232000000F08D011E0502080F31188BFF34F8FC9
:10233000BFF36F8FFEE7206C38B1502080F3118817
:10234000BFF34F8FBFF36F8FFEE7022F0AD1E06B11
:10235000012807D0502080F31188BFF34F8FBFF3BF
:102360006F8FFEE7FFF7E4FB5020EFF3118680F359
:102370001188BFF34F8FBFF36F8FA06BE16B884263
:1023800006D3022F04D0002086F31188BDE8F08721
:1023900094F945503A4649462046FFF71AF8681C1A
:1023A00004D06D1C84F845500120EDE7606A0028D8
:1023B000FAD004F1240000F087F90028F4D0B8F135
:1023C000000FF1D00121C8F80010EDE770B5044608
:1023D0000D4654B900BF502080F31188BFF34F8FD2
:1023E000BFF36F8F00BF00BFFEE755B900BF50209D
:1023F00080F31188BFF34F8FBFF36F8F00BF00BF13
:10240000FEE7FFF739FB124803682868401C08B94B
:10241000002619E00F4920680968884204D06068E6
:10242000984201D801260FE06068181A296888428E
:1024300009D228686168591A401A28602046FFF7B7
:102440005FFC002600E00126FFF736FB304670BD3A
:1024500054000020680000202DE9FF4F83B0804623
:1024600089461746DDE910ABB800FFF721FA0646AA
:1024700056B14C20FFF71CFA04460CB1266304E069
:102480003046FFF72DFB00E000246CB1CDE900AB36
:1024900002943A4649464046069BFEF7DFFF204637
:1024A000FEF7D2FE012501E04FF0FF35284607B0C8
:1024B000BDE8F08F0549096809B9012005E0044924
:1024C000096809B9022000E0002070475C00002084
:1024D000780000200149086870470000540000207F
:1024E0002DE9F0414FF0000843480068002876D1FC
:1024F00042480068451C4148056015BB40480068DB
:10250000006808B9012000E0002050B900BF502049
:1025100080F31188BFF34F8FBFF36F8F00BF00BFF1
:10252000FEE737480768374800683549086035488E
:10253000076035480068401C33490860FFF7F8F829
:1025400000BF3248006885423BD300BF2C4800687A
:10255000006808B9012000E0002020B14FF0FF30F2
:102560002A4908602CE026480068C068C46866688C
:10257000B54202D22548066022E0201DFFF718FA76
:10258000A06A18B104F11800FFF712FA2049E06AB6
:102590000968884202D91E49E06A0860E16A01EBD5
:1025A00081011C4A02EB8100211DFFF759FA1A49EB
:1025B000E06A0968C96A8842C8D34FF00108C5E7D4
:1025C00000BF15480068C06A00EB8000114951F84F
:1025D0002000012801D94FF0010805E0FFE70F486E
:1025E0000068401C0D4908600D48006808B14FF0B4
:1025F00001084046BDE8F08178000020540000202A
:1026000044000020480000206800002070000020E6
:10261000580000202C010020400000206000002015
:102620006400002070B505462C460026002D43D0DE
:1026300022480068844201D1012000E0002050B906
:1026400000BF502080F31188BFF34F8FBFF36F8F0F
:1026500000BF00BFFEE7A06C50B900BF502080F360
:102660001188BFF34F8FBFF36F8F00BF00BFFEE72E
:10267000A06C401EA064616CE06A88421CD0A06C13
:10268000D0B9201DFFF794F9606CE062E06AC0F1F8
:102690000C00A0610A49E06A0968884202D9084929
:1026A000E06A0860E16A01EB8101064A02EB810001
:1026B000211DFFF7D5F90126304670BD40000020EE
:1026C000580000202C01002070B50646F068C46850
:1026D00054B900BF502080F31188BFF34F8FBFF370
:1026E0006F8F00BF00BFFEE704F11800FFF760F92D
:1026F00015480068A0B9201DFFF75AF91349E06A90
:102700000968884202D91149E06A0860E16A01EB70
:1027100081010F4A02EB8100211DFFF7A1F904E0BE
:1027200004F118010B48FFF79BF90B49E06A0968AF
:10273000C96A884204D9012501200849086000E0DF
:102740000025284670BD00007800002058000020B9
:102750002C010020440200204000002064000020E2
:1027600070B5002400263648006850B900BF5020DC
:1027700080F31188BFF34F8FBFF36F8F00BF00BF8F
:10278000FEE7FFF779F92E480068401E2C490860E3
:102790000846006800284ED12A48006800284AD020
:1027A00023E02948C068C46804F11800FFF700F965
:1027B000201DFFF7FDF82549E06A0968884202D923
:1027C0002249E06A0860E16A01EB8101204A02EBDC
:1027D0008100211DFFF744F91E49E06A0968C96AB2
:1027E000884202D301201C4908601748006808B9D4
:1027F000012000E000200028D3D00CB1FEF798FFA4
:102800001648056865B100BFFFF76AFE10B10120E8
:10281000114908606D1E002DF6D100200F49086097
:102820000D48006838B1012630070D490860BFF334
:102830004F8FBFF36F8FFFF73FF9304670BD000039
:1028400078000020500000204402002058000020A2
:102850002C010020400000206400002060000020C7
:1028600004ED00E01CB54FF48274FEF745FD0C4802
:10287000006860B10A490220091DCDE9000100236A
:10288000224608A10948FFF7E7FD002807D150209C
:1028900080F31188BFF34F8FBFF36F8FFEE71CBD2E
:1028A0002C000020546D722053766300211800081C
:1028B000FEB51E4613460200089D4FF0000014D0DE
:1028C000124C2768002F0FD0CDE900130292062981
:1028D00015DAFFF7EFFD02284FF000030DD00022BC
:1028E00069462068FFF764FCFEBD502080F3118824
:1028F000BFF34F8FBFF36F8FFEE72A46F0E7002349
:10290000324669463846FFF703FDFEBD2C00002025
:102910003029000800000020A4000000580F000823
:10292000D4290008A4000020DCC10100680F0008C1
:10293000041000E0001000E0FCED00E000000000EA
:102940000000000000000000000000000000000087
:102950000000000000000000000000000000000077
:102960000000000000000000000000000000000067
:102970000000000000000000000000000000000057
:102980000000000000000000000000000000000047
:102990000000000000000000000000000000000037
:1029A0000000000000000000000000000000000027
:1029B000AAAAAAAA00000000F87F010000000000F7
:1029C0000000000000000000000000000000000007
:0429D0000000000003
:040000050800018965
:00000001FF
