:020000040800F2
:10000000F034012059020008E1E10008D5C40008DD
:10001000DDE100082D0900080927010800000000A3
:10002000000000000000000000000000A101000826
:10003000911C000800000000F5010008611A010889
:1000400073020008730200087302000873020008BC
:1000500073020008730200087302000873020008AC
:10006000730200087302000873020008730200089C
:10007000730200087302000873020008730200088C
:10008000730200087302000873020008730200087C
:10009000730200087302000873020008730200086C
:1000A000730200087302000873020008730200085C
:1000B000730200087302000873020008730200084C
:1000C000730200087302000873020008730200083C
:1000D00073020008251E0108291E0108651E01087B
:1000E000730200087302000873020008730200081C
:1000F000730200087302000873020008730200080C
:1001000073020008A50601087302000873020008C4
:10011000AD1D0108E91D0108730200087302000803
:10012000730200087302000873020008890C0008BB
:1001300073020008951C000873020008730200088F
:1001400073020008730200087302000873020008BB
:100150007302000873020008910C0008A11E010838
:10016000730200087302000873020008730200089B
:10017000730200087302000873020008730200088B
:1001800099C4000873020008DFF80CD000F078FB77
:100190000048004769C40108F0340120704700009E
:1001A0002A4B19680868B0E8F04F80F30988BFF35C
:1001B0006F8F4FF0000080F311887047000000003F
:1001C00006480068006880F3088862B661B6BFF32D
:1001D0004F8FBFF36F8F00DF00BF00BF08ED00E05F
:1001E000DFF80C00016841F470010160704700BF46
:1001F00088ED00E0EFF30980BFF36F8F134B1A68AF
:100200001EF0100F08BF20ED108A20E9F04F10609B
:1002100008B44FF0500080F31188BFF34F8FBFF345
:100220006F8F1DF0ADFF4FF0000080F3118808BC08
:1002300019680868B0E8F04F1EF0100F08BFB0EC66
:10024000108A80F30988BFF36F8F7047BC010020CC
:10025000EFF30580704700000648804706480047D6
:10026000FEE7FEE7FEE7FEE7FEE7FEE7FEE7FEE766
:10027000FEE7FEE7951A0108890100082DE9F05F05
:100280000546002092469B46884606468146402405
:100290001BE0284641464746224600F05AFA53469C
:1002A0005A46C01A914110D311461846224600F012
:1002B00041FA2D1A67EB01084F4622460120002122
:1002C00000F038FA17EB00094E41201EA4F101049A
:1002D000DFDC484631462A464346BDE8F09F10B56C
:1002E000441A0346944209D28418114403E011F8D9
:1002F000013D04F8013D521EF9D210BD40EA01044F
:10030000A40703D009E010C9121F10C3042AFAD2AF
:1003100003E011F8014B03F8014B521EF9D210BD56
:10032000D2B201E000F8012B491EFBD27047002237
:10033000F6E710B513460A4604461946FFF7F0FFE4
:10034000204610BD10B5044604E00B7800F8013BD0
:1003500003B1491C521EF8D2204610BDCAB2401E3D
:1003600010F8011F8A4202D00029F9D100207047FD
:10037000421C10F8011B0029FBD1801A704710B5F0
:10038000002200E0521C835C8C5CA34201D1002B54
:10039000F8D1D8B2E1B2401A10BD30B50446002001
:1003A000034600E05B1C934203D2E05CCD5C401B43
:1003B000F8D030BD034611F8012B00F8012B002ABC
:1003C000F9D1184670472DE9FE4F804681EA0300B7
:1003D000C00F0C46009021F0004123F00045B8EB1F
:1003E0000200A94105D24046214690461C460B46D4
:1003F000024623F00040104347D0270DC7F30A0000
:10040000C3F30A510290401A019040286BDAC3F3FB
:10041000130040F4801B0098924620B10023D2EBD9
:10042000030A63EB0B0B01985946C0F1400250469A
:1004300000F080F906460D4650465946019A00F0F4
:1004400098F910EB08006141002487EA115284EA10
:10045000E7731A4340D0009A62B3019A012A4FEA27
:10046000075215DC001B61EB02014FF0004202EA6B
:100470000752CDE90042001C41F5801132462B465F
:1004800000F098F903B0BDE8F08F40462146F9E747
:10049000001B61EB0201001C41F5801300185B4159
:1004A0002018A2F5001747EB030140EAD570B619F2
:1004B0006D4111E06D084FEA360645EAC0754FEA16
:1004C0000752001B61EB0201001C41F58011490835
:1004D0004FEA30000019514132462B4603B0BDE8C7
:1004E000F04F00F058B90098012240000023D0EBF3
:1004F000020263EBE073009821464FEAE074B8EB28
:10050000000061EB0401E9E783F000435BE781F061
:10051000004158E72DE9FE4F81EA030404F000444E
:1005200021F0004100944FF0000B23F0004350EA0B
:1005300001045ED052EA03045BD0C3F30A54C1F352
:100540000A552C44A4F2F3340194A0FB0254C1F3E5
:10055000130141F48011C3F3130343F4801301FB2F
:10056000024400FB034E840A970A44EA815447EA96
:100570008357A4FB076802958D0A05FB07854FEAA0
:10058000932C04FB0C542705029D4FEA065847EABA
:100590001637B5EB08056EEB070C870E920E47EA8F
:1005A000811742EA8312A7FB0201B6EB0B0164EB51
:1005B00000042B0D43EA0C335E1844EB1C50DA4662
:1005C0005146E7FB0201C5F313044FEA0B3343EA3C
:1005D00014534FEA0432019C43EA0603A4F10C04CD
:1005E0000294009CCDE900B400F0E4F803B0BDE84B
:1005F000F08F00200146F9E72DE9F04D81EA030470
:1006000004F0004B21F0004514464FF0000A23F09F
:10061000004150EA050220D054EA01021DD0C5F382
:100620000A570246C5F31303C1F31300C1F30A5678
:1006300040F4801543F48013A7EB0608101BD64640
:1006400008F2FD3873EB050002D308F1010801E060
:1006500092185B41B8F1000F03DA00200146BDE8B3
:10066000F08D00204FF48011064684460EE0171BE3
:1006700073EB050705D3121B63EB050306434CEA36
:10068000010C49084FEA300092185B4150EA01071B
:10069000EDD152EA030012D082EA040083EA050198
:1006A000084305D0101BAB4106D20122002306E00F
:1006B00000224FF0004302E06FF0010253101AEBEA
:1006C00006004CEB085110EB0A0041EB0B01BDE8B2
:1006D000F04D00F060B8000030B5041E71F1000468
:1006E00004DB4FF00044404264EB0101141E73F13F
:1006F000000405DB1C464FF00043524263EB040349
:10070000994208BF904230BD30B50B4601460020EB
:100710002022012409E021FA02F59D4205D303FAC3
:1007200002F5491B04FA02F52844151EA2F1010244
:10073000F1DC30BD202A04DB203A00FA02F100206F
:1007400070479140C2F1200320FA03F3194390400F
:100750007047202A04DB203A21FA02F0002170477A
:1007600021FA02F3D040C2F1200291400843194619
:100770007047202A06DBCB17203A41FA02F043EA01
:10078000E07306E041FA02F3D040C2F1200291404A
:1007900008431946704710B5141E73F1000408DAB7
:1007A000401C41F1000192185B411A4301D120F035
:1007B000010010BD2DE9F04D92469B4611B1B1FAF2
:1007C00081F202E0B0FA80F220329046FFF7B2FFE9
:1007D00004460F4640EA0A0041EA0B0153465A46D6
:1007E000084313D0114653EA010019D0C8F1400262
:1007F0005046FFF7AEFF05460E4650465946424664
:10080000FFF798FF084305D0012004E02046394651
:10081000BDE8F08D0020054346EAE0762C433743DF
:100820000A986305E40AA0EB08000022FD0A44EAE6
:1008300047540A3002D500200146E9E701051019A6
:100840006941DDE9084500196941BDE8F04DA2E7BD
:10085000C1F30A52C1F3130140F2FF3341F4801196
:100860009A4202DA00200146704740F233439A422E
:10087000A2F2334202DC5242FFF76BBFFFF75ABFCE
:10088000064C074D06E0E06840F0010394E80700DD
:1008900098471034AC42F6D3FFF77AFC9C0807085F
:1008A000BC08070870B58C1810F8015B15F0070339
:1008B00001D110F8013B2A1106D110F8012B03E0F9
:1008C00010F8016B01F8016B5B1EF9D12B0705D401
:1008D0000023521E0DD401F8013BFAE710F8013B4A
:1008E000CB1A921C03E013F8015B01F8015B521E66
:1008F000F9D5A142D8D3002070BD00001CB5064830
:1009000000210B464FF48052CDE9001003A10648A8
:100910001EF0DAF91CBD00008C0000205461736BDE
:100920005F47554900000000BD1B010800BFFEE7FE
:100930007CB5214C0546216831F8220F4A8D1044C0
:1009400008804888CA8D10444880284608F036FF41
:100950002168498CADF80010461828460BF008FCB9
:100960003044401EADF8040008F072FF2168898C05
:10097000ADF802100844401EADF80600684613F0BA
:10098000D5F904E0284606F0D7FD13F091F90028C8
:10099000F8D10A2D04D0BDF804002168401C488419
:1009A000206830F8221F428D891A01804188C28D4B
:1009B000891A41807CBD00009802002070B5002596
:1009C0004FF4803400E0641E24B180200FF040FD1D
:1009D0000028F8D014B90325284670BD40F2FF5016
:1009E0000FF0C4FB2846F8E72DE9F0410646002742
:1009F0004848056801E04748056805F045000028BB
:100A0000F9D005F0040030B1032704200FF0AEFB4D
:100A10003846BDE8F08105F0010028B1012701202A
:100A20000FF0A4FB3846F4E70FF00CFDB04202D003
:100A300010273846EDE740F2FF500FF097FB0020FB
:100A40000FF0F6FD04463448204008B93846E0E788
:100A500004F0004008B11C20DBE704F0804008B13E
:100A60000920D6E704F0005008B10A20D1E704F0CD
:100A7000805008B10B20CCE704F0006008B10C20D6
:100A8000C7E704F0806008B10D20C2E704F0807071
:100A900008B10E20BDE704F4000008B10F20B8E74C
:100AA00004F4800008B11020B3E704F4001008B18A
:100AB0001120AEE704F4801008B11220A9E704F475
:100AC000002008B11320A4E704F4802008B114200A
:100AD0009FE704F4003008B115209AE704F4803051
:100AE00008B1162095E704F4004008B1172090E7FC
:100AF00004F4804008B118208BE704F4005008B1DA
:100B0000192086E704F0080008B11A2081E738466A
:100B10007FE70000342C014008E0FFFD70B50025A0
:100B20001048046801E00F48046804F045000028FC
:100B3000F9D004F0040028B1032504200FF016FBBF
:100B4000284670BD04F0010028B1012501200FF0F6
:100B50000DFB2846F5E740F2FF500FF007FB284653
:100B6000EFE70000342C014070B500250B48046805
:100B700001E00A48046804F045000028F9D004F0B8
:100B8000040028B1032504200FF0F0FA284670BDB8
:100B900040F2FF500FF0EAFA2846F8E7342C014003
:100BA0002DE9F04106460F464FF00008224805683F
:100BB00001E02148056805F045000028F9D005F05E
:100BC000040038B14FF0030804200FF0CFFA40467C
:100BD000BDE8F08105F0010030B14FF001080120BF
:100BE0000FF0C4FA4046F3E70FF02CFCB04203D0FC
:100BF0004FF010084046EBE740F2FF500FF0B6FA16
:100C000000200FF015FD044604F4604018B9200CD4
:100C100038804046DCE704F4005008B11320D7E7E1
:100C200004F4804008B11020D2E704F4004008B179
:100C30000F20CDE74046CBE7342C014070B50026AD
:100C40004FF480350F48046802E06D1E0D480468BB
:100C500004F0450008B9002DF7D115B104F00400E7
:100C600028B1032604200FF081FA304670BD04F04D
:100C7000400028B1002640200FF078FA3046F5E712
:100C80003046F3E7342C014010B510F025FB10BDC1
:100C900010B50A490A4800F04FFB40B14FF020510F
:100CA000074800F00FF80021054800F033F94FF035
:100CB0003D51034800F006F810BD00000008002078
:100CC000B864024070B504460D46344884423AD0B8
:100CD00032481830844236D030483030844232D0E6
:100CE0002E48483084422ED02C48603084422AD08E
:100CF0002A487830844226D028489030844222D036
:100D00002648A83084421ED0254884421BD024485F
:100D10001830844217D022483030844213D0204803
:100D2000483084420FD01E48603084420BD01C48AB
:100D30007830844207D01A489030844203D0184853
:100D4000A830844200D104E040F2344115A01AF0EA
:100D500043FF05F04050B0F1405F07D005F0405030
:100D600020B12048284008B905B104E040F23541DF
:100D70000CA01AF031FF0A48844202D2074E103EFE
:100D800001E0074E103E05F0005018B1164828400B
:100D9000F06002E014482840B06070BD106002406E
:100DA000106402402E2E5C2E2E5C4C6962726172C1
:100DB0006965735C53544D3332463478785F5374AD
:100DC000645065726970685F4472697665725C73BD
:100DD00072635C73746D3332663478785F646D610E
:100DE0002E63000082F002C07D0F7D0F70B50446B7
:100DF0000D46344884423AD032481830844236D0C6
:100E000030483030844232D02E48483084422ED090
:100E10002C48603084422AD02A487830844226D038
:100E200028489030844222D02648A83084421ED0E0
:100E3000254884421BD024481830844217D02248C9
:100E40003030844213D02048483084420FD01E48AE
:100E5000603084420BD01C487830844207D01A4856
:100E60009030844203D01848A830844200D104E076
:100E700040F2E94115A01AF0AFFE05F04050B0F184
:100E8000405F07D005F0405020B11DB11F482840F9
:100E900000B904E040F2EA410CA01AF09DFE0A48B5
:100EA000844202D2074E103E01E0074E103E05F08C
:100EB000005018B116482840F06002E0144828405D
:100EC000B06070BD10600240106402402E2E5C2E97
:100ED0002E5C4C69627261726965735C53544D3368
:100EE00032463478785F5374645065726970685F15
:100EF0004472697665725C7372635C73746D3332CD
:100F0000663478785F646D612E63000082008240F1
:100F10007D0F7D0F70B504460D462C4884423AD0B3
:100F20002A481830844236D028483030844232D0A3
:100F30002648483084422ED02448603084422AD04B
:100F400022487830844226D020489030844222D0F3
:100F50001E48A83084421ED01D4884421BD01C4825
:100F60001830844217D01A483030844213D01848C1
:100F7000483084420FD01648603084420BD0144869
:100F80007830844207D012489030844203D0104811
:100F9000A830844200D104E040F2E1110DA01AF023
:100FA0001BFE0DB1012D00D104E04FF4F17109A039
:100FB0001AF012FE25B1206840F00100206003E025
:100FC000206820F00100206070BD00001060024029
:100FD000106402402E2E5C2E2E5C4C69627261728F
:100FE0006965735C53544D3332463478785F53747B
:100FF000645065726970685F4472697665725C738B
:1010000072635C73746D3332663478785F646D61DB
:101010002E63000010B50446724884423AD07148ED
:101020001830844236D06F483030844232D06D4818
:10103000483084422ED06B48603084422AD06948C0
:101040007830844226D067489030844222D0654868
:10105000A83084421ED0644884421BD062481830B5
:10106000844217D060483030844213D05E48483004
:1010700084420FD05C48603084420BD05A487830AC
:10108000844207D058489030844203D05648A83054
:10109000844200D103E0C72154A01AF09DFD2068CE
:1010A00020F001002060002020606060A060E0600F
:1010B0002061212060614B48844204D13D20494990
:1010C000103988608CE047481830844205D14FF4CD
:1010D000746044491039886082E04248303084426C
:1010E00005D14FF474103F491039886078E03D48CD
:1010F0004830844205D14FF074603A491039886015
:101100006EE038486030844204D14848354910398F
:10111000C86065E033487830844204D1444831499E
:101120001039C8605CE02F489030844204D14148B7
:101130002C491039C86053E02A48A830844205D1B0
:101140004FF03D5027491039C86049E02648844295
:1011500004D13D2024490839086041E02248183074
:10116000844205D14FF474601F490839086037E0A4
:101170001D483030844205D14FF474101A490839A3
:1011800008602DE018484830844205D14FF0746063
:1011900015490839086023E013486030844204D1BF
:1011A00022481149091F08601AE00F48783084422C
:1011B00004D11F480C49091F086011E00A4890300B
:1011C000844204D11B480849091F086008E006480A
:1011D000A830844204D14FF03D500349091F0860F4
:1011E00010BD000010600240106402402E2E5C2EE4
:1011F0002E5C4C69627261726965735C53544D3345
:1012000032463478785F5374645065726970685FF1
:101210004472697665725C7372635C73746D3332A9
:10122000663478785F646D612E6300003D000020B5
:10123000400F002000003D2070B504460D462C48AC
:1012400084423AD02A481830844236D02848303078
:10125000844232D02648483084422ED02448603020
:1012600084422AD022487830844226D020489030C8
:10127000844222D01E48A83084421ED01D48844299
:101280001BD01C481830844217D01A483030844292
:1012900013D01848483084420FD01648603084423A
:1012A0000BD014487830844207D0124890308442E2
:1012B00003D01048A830844200D104E040F2292134
:1012C0000DA01AF089FC0DB1202D00D104E040F2F0
:1012D0002A2109A01AF080FC25B1206840F02000E6
:1012E000206003E0206820F02000206070BD000036
:1012F00010600240106402402E2E5C2E2E5C4C6961
:10130000627261726965735C53544D33324634784E
:10131000785F5374645065726970685F447269766F
:1013200065725C7372635C73746D333266347878A3
:101330005F646D612E6300002DE9F04105460C46A7
:101340004FF000080027724885423AD070481830A4
:10135000854236D06E483030854232D06C484830B5
:1013600085422ED06A48603085422AD0684878305D
:10137000854226D066489030854222D06448A83005
:1013800085421ED0634885421BD062481830854292
:1013900017D060483030854213D05E4848308542CF
:1013A0000FD05C48603085420BD05A487830854277
:1013B00007D058489030854203D05648A83085421F
:1013C00000D104E040F2F33153A01AF005FC62486A
:1013D00084427CD060481038844278D05E48183807
:1013E000844274D05D48844271D0C01E84426ED065
:1013F0005B4884426BD05B48844268D05A48844240
:1014000065D05548E030844261D053482030844252
:101410005DD0B4F1815F5AD05448844257D05448CB
:10142000844254D05348844251D0534884424ED0D1
:10143000B4F1C05F4BD0B4F1A05F48D0B4F1905F7D
:1014400045D0B4F1885F42D0B4F1825F3FD04B48C1
:1014500084423CD049481038844238D04748183834
:10146000844234D0001F844231D0C01E84422ED02A
:10147000434884422BD04348844228D04248844287
:1014800025D03E48E030844221D03C482030844280
:101490001DD03E4884421AD03D48844217D03D4872
:1014A000844214D03C48844211D03C4884420ED03F
:1014B000B4F1205F0BD0B4F1105F08D0B4F1085F35
:1014C00005D0B4F1045F02D0B4F1015F00D104E0B3
:1014D0004FF47D7110A01AF07FFB0E48854202D2B6
:1014E0000B4E103E01E00B4E103E04F0005008B1D0
:1014F000776800E037682A48074007EA040010B11F
:101500004FF0010801E04FF000084046BDE8F081CF
:1015100010600240106402402E2E5C2E2E5C4C693E
:10152000627261726965735C53544D33324634782C
:10153000785F5374645065726970685F447269764D
:1015400065725C7372635C73746D33326634787881
:101550005F646D612E6300002000001004008010A5
:10156000000800100004001000020010000010101D
:1015700000000810000004100000011020000020EE
:1015800000080020000400200002002000002020AD
:1015900000001020000008200000042000000120AE
:1015A0007D0F7D0F2DE9F04705460C464FF00008F2
:1015B0000027B946784885423AD0774818308542A6
:1015C00036D075483030854232D073484830854235
:1015D0002ED07148603085422AD06F4878308542DD
:1015E00026D06D489030854222D06B48A830854285
:1015F0001ED06A4885421BD068481830854217D0F3
:1016000066483030854213D06448483085420FD058
:101610006248603085420BD060487830854207D000
:101620005E489030854203D05C48A830854200D1A6
:1016300004E040F299415AA01AF0CEFA6848844278
:1016400078D06848844275D06748844272D0674831
:1016500084426FD0664884426CD06648844269D028
:101660006548844266D06548844263D05F48FC3058
:1016700084425FD05E483F3084425BD06048844201
:1016800058D06048844255D05F48844252D05F4869
:1016900084424FD05E4884424CD05E48844249D058
:1016A0005D48844246D05D48844243D05C488442D1
:1016B00040D05C4884423DD05B4884423AD05B488D
:1016C000844237D05A48844234D05A48844231D078
:1016D000594884422ED0594884422BD058488442DD
:1016E00028D05848844225D05248FC30844221D02A
:1016F00051483F3084421DD0534884421AD0534849
:10170000844217D05248844214D05248844211D0A7
:10171000514884420ED0514884420BD050488442F4
:1017200008D05048844205D04F48844202D04F48E8
:10173000844200D104E040F29A4119A01AF04CFA18
:101740001648854202D2144E103E01E0134E103E60
:101750004748204030B11E2000EAD427286800EA1C
:10176000070902E0686900F0800904F0005008B140
:10177000776800E037683F48074007EA040028B16F
:10178000B9F1000F02D04FF0010801E04FF000085E
:101790004046BDE8F087000010600240106402403F
:1017A0002E2E5C2E2E5C4C69627261726965735CD0
:1017B00053544D3332463478785F537464506572B5
:1017C0006970685F4472697665725C7372635C739A
:1017D000746D3332663478785F646D612E63000017
:1017E000208000101040001008200010041000108D
:1017F000010000900088001000440010002200103A
:10180000008020100040101000200810001004106C
:101810000000019000800018004000140020001219
:101820000010001100004090208000201040002097
:101830000820002004100020010000A000880020E3
:1018400000440020002200200080202000401020C2
:101850000020082000100420000001A000800028C3
:10186000004000240020002200100021000040A0C1
:101870003C0F3C0F7D0F7D0F70B504460D4616469C
:10188000394884423AD038481830844236D03648F5
:101890003030844232D03448483084422ED03248EE
:1018A000603084422AD030487830844226D02E4896
:1018B0009030844222D02C48A83084421ED02B483D
:1018C00084421BD029481830844217D02748303032
:1018D000844213D02548483084420FD023486030DA
:1018E00084420BD021487830844207D01F48903082
:1018F000844203D01D48A830844200D104E040F265
:1019000061411BA01AF068F925F09E0008B905B1E5
:1019100004E040F2624116A01AF05EF90EB1012E09
:1019200000D104E040F2634111A01AF055F905F02E
:10193000800048B126B1606940F08000606103E03A
:10194000606920F080006061802D0BD02EB120688E
:1019500005F01E010843206004E0206805F01E0128
:101960008843206070BD0000106002401064024097
:101970002E2E5C2E2E5C4C69627261726965735CFE
:1019800053544D3332463478785F537464506572E3
:101990006970685F4472697665725C7372635C73C8
:1019A000746D3332663478785F646D612E63000045
:1019B00070B505460C460026A24885423AD0A1489B
:1019C0001830854236D09F483030854232D09D480D
:1019D000483085422ED09B48603085422AD09948B5
:1019E0007830854226D097489030854222D095485D
:1019F000A83085421ED0944885421BD092481830AA
:101A0000854217D090483030854213D08E484830F8
:101A100085420FD08C48603085420BD08A487830A0
:101A2000854207D088489030854203D08648A83048
:101A3000854200D104E04FF4A27184A01AF0CCF8E2
:101A40002068D8B12068B0F1007F17D02068B0F1CD
:101A5000806F13D02068B0F1C06F0FD02068B0F154
:101A6000006F0BD02068B0F1206F07D02068B0F174
:101A7000406F03D02068B0F1606F00D104E040F205
:101A8000451172A01AF0A8F8E06828B1E068402873
:101A900002D0E068802800D104E04FF4A3716BA06D
:101AA0001AF09AF8206920B12069B0F5803F00D281
:101AB00004E040F2471165A01AF08EF86069B0F5B5
:101AC000007F01D0606900B904E04FF4A4715FA009
:101AD0001AF082F8A069B0F5806F01D0A06900B952
:101AE00004E040F2491159A01AF076F8E06938B1E3
:101AF000E069B0F5006F03D0E069B0F5805F00D118
:101B000004E04FF4A57151A01AF066F8206A38B1CC
:101B1000206AB0F5005F03D0206AB0F5804F00D195
:101B200004E040F24B1149A01AF056F8606A18B16F
:101B3000606AB0F5807F00D104E04FF4A67143A045
:101B40001AF04AF8A06A58B1A06AB0F5803F07D0F1
:101B5000A06AB0F5003F03D0A06AB0F5403F00D1C5
:101B600004E040F24D1139A01AF036F8E06A10B1E5
:101B7000E06A042800D104E04FF4A77133A01AF002
:101B80002BF8206B40B1206B012805D0206B022878
:101B900002D0206B032800D104E040F24F112BA0AB
:101BA0001AF01AF8606B58B1606BB0F5000F07D0EF
:101BB000606BB0F1807F03D0606BB0F1C07F00D16B
:101BC00004E04FF4A87121A01AF006F8A06B58B1F8
:101BD000A06BB0F5001F07D0A06BB0F5800F03D04D
:101BE000A06BB0F5C00F00D104E040F2511117A076
:101BF00019F0F2FF2E6825480640E1682068084386
:101C000061690843A1690843E1690843216A0843FF
:101C1000616A0843A16A0843616B0843A16B0843EA
:101C200006432E606E6926F00706D4E90B010843CF
:101C300006436E61206968606068A860A068E8601B
:101C400070BD000010600240106402402E2E5C2E19
:101C50002E5C4C69627261726965735C53544D33DA
:101C600032463478785F5374645065726970685F87
:101C70004472697665725C7372635C73746D33323F
:101C8000663478785F646D612E6300003F801CF0DD
:101C90007047000010B509484069094900EA01048D
:101CA0000648446104F0C00008B100F00BF804F0ED
:101CB000010008B100F028F810BD000000900240BB
:101CC000FFE7010008B5002000900C48006840F0D4
:101CD00001000A4908600A48006870B1694608486E
:101CE00000681CF0A7F8009838B14FF08050054903
:101CF0000860BFF34F8FBFF36F8F08BD1C02002039
:101D00003402002004ED00E008B5002000900C48EB
:101D1000006840F002000A4908600A48006870B193
:101D20006946084800681CF085F8009838B14FF003
:101D3000805005490860BFF34F8FBFF36F8F08BD18
:101D40001C0200203402002004ED00E070B50446BF
:101D50000D461CF0E7FF064605F00100B0B1D4F8CF
:101D6000B80628B1D4F8B806B04201D1012000E08D
:101D7000002050B900BF502080F31188BFF34F8F6F
:101D8000BFF36F8F00BF00BFFEE700BF70BD000054
:101D90002DE9F04704460E4617469846DDF8209098
:101DA0000025A06930B1E168A0690844F1198842B2
:101DB00000D2184D5DBB606848B300BFB9F1000F99
:101DC00008D194F8B50600F0100018B9D4F8A006B0
:101DD00003F050F93A4631464046D4E901C3E047A2
:101DE0000546B9F1000F08D194F8B50600F01000CF
:101DF00018B9D4F8A00603F0BAFBA8B20649884285
:101E000000D003E0142003F0E8FED7E700BF284627
:101E1000BDE8F0871700078109000B8B2DE9F0471B
:101E200004460E4617469846DDF820900025A06926
:101E300030B1E168A0690844F119884200D2194D17
:101E400065BB206850B300BFB9F1000F08D194F80A
:101E5000B50600F0100018B9D4F8A00603F00AF98E
:101E60003A4631464046D4F800C0A368E0470546EC
:101E7000B9F1000F08D194F8B50600F0100018B9B8
:101E8000D4F8A00603F073FBA8B20749884200D03B
:101E900003E0142003F0A1FED6E700BF2846BDE80A
:101EA000F08700001800088109000B8B10B504466C
:101EB0000421D4F8A8061CF007FA10BD2DE9F84358
:101EC00005460E464FF47A7070434FF47A71B0FBBA
:101ED000F1F8CDF80080002304221146D5F8A806B9
:101EE0001CF05AFA074607F0040008B1012400E08C
:101EF00000242046BDE8F88308221BE003782E2B3F
:101F000001D1102215E001EA02034BB10378412B05
:101F10000FDB03785A2B0CDC03782033037008E0C6
:101F20000378612B05DB03787A2B02DC0378203BF6
:101F30000370401C0378002BE0D1704770B5044655
:101F40000CB1206808B9124E1FE02168D1F8A00634
:101F500003F090F82068D0F8A4560D4E28360CE017
:101F6000A54209D195F8240000F0010010B1084EF7
:101F7000293600E0002602E0ED6A002DF0D100BF16
:101F80002168D1F8A00603F0F2FA304670BD0000D7
:101F90000200148370B505460C460026206930B156
:101FA0002846216903F08BFA06460020206130465E
:101FB00070BD00002DE9F84F064689460027002431
:101FC0004946304600F0E4F880464146304604F089
:101FD00055FC804600251DE06DB942224146304641
:101FE00001F0BAFE04460CB9154F16E0B6F8B0166B
:101FF000A068FEF79CF90020009008EB0501012283
:102000003046A368FFF70AFF074607F0004000B11B
:1020100003E06D1C306CA842DEDC00BF64B1E068F8
:1020200020F48070E0602146304603F048FA824692
:10203000F80F00B9574600BF3846BDE8F88F0000DA
:1020400004000284F0B5BDB0044600BF0CB94F4E89
:1020500098E02046FFF772FF0646B0B22B2823D146
:102060002168D1F8A00603F005F82068D0F8A4563E
:10207000A54204D12168E06AC1F8A4060AE006E09E
:10208000E86AA04202D1E06AE86202E0ED6A002D4F
:10209000F6D100BF2168D1F8A00603F068FA204607
:1020A0001BF0F4FC00266DE006F0004000B169E092
:1020B00094F8240000F00200002840D194F8280091
:1020C00000F00E0000283AD02068B0F850002168D7
:1020D000096C00FB01F76068B0FBF7F107FB11002A
:1020E00030B9A06820B10121204603F01AFE06464F
:1020F000F00FE8B9618D02AB226A206802F018F88F
:102100000646F00FA0B960680299884201D1606864
:1021100070B9606808B900200390606802900020E0
:102120000090618D02AB226A206803F051F90646E7
:10213000F00F18B9206801F07BFD064600BF21684A
:10214000D1F8A00602F096FF2068D0F8A456A54268
:1021500004D12168E06AC1F8A4060AE006E0E86A52
:10216000A04202D1E06AE86202E0ED6A002DF6D1F9
:1021700000BF2168D1F8A00603F0F9F920461BF052
:1021800085FC00BF00BF30463DB0F0BD02001583A6
:1021900070B502460B46002052B102F10C01022B31
:1021A00005D39C1E4E6BCD6904FB065000E0086A07
:1021B00070BD00002DE9F34F83B004464FF00009D5
:1021C0000026B346002001900121204602F0BAF813
:1021D00008B9012000E000200090009810B12046CE
:1021E00002F09DF994F854000C282DD101222046CC
:1021F000216A01F0B1FD054615B9DFF8309123E001
:102200000021A86804F0C3FA4949884213D14FF469
:10221000F271A86804F0BBFA464988420BD14FF42A
:10222000F471A86804F0B3FA0646701C10B10120DE
:10223000019000E000262946204603F040F981463F
:102240000025019800B1E663019800285DD1B4F83B
:102250005000002859D094F854000C2807D1B4F845
:10226000B006C11700EB91714FEAA10A05E0B4F87E
:10227000B00600EBD0714FEA610A002741E0206907
:10228000C1190122204601F067FD054615B9DFF8A6
:102290009C9039E04FF000081DE094F854000C28A1
:1022A00008D14FEA8801A86804F071FA20F0704064
:1022B000029005E04FEA4801A86804F0F5FA0290A0
:1022C000029800B9761C206B584500D205E00BF14E
:1022D000010B08F10108D045DFD300BF2946204695
:1022E00003F0EDF88146002509F0004000B10BE055
:1022F000206B584500D207E0206BB04200D2266B1D
:102300007F1C6069B842BAD800BF009810B120465F
:1023100003F00FFE09F0004000B100260498C0F859
:102320000090304605B0BDE8F08F00000400058441
:10233000525261417272416130B5014600200B2258
:102340000DE000F001030BB1802300E0002303EB5C
:10235000600411F8015B6319D8B2531EDAB2002A87
:10236000EFD130BDF8B506460C460020009030464F
:1023700002F0D5F801226946304601F085F905469C
:10238000304603F0D6FD25B10121304600F05CFB5C
:102390000090009820602846F8BD2DE9F74F92B0D4
:1023A0000E461446002700253068039004F11600FD
:1023B000FDF7DEFF1FFA80FA0AF10C000D2190FBF9
:1023C000F1F904F1160002F0DDF820210AA8FDF76A
:1023D000AEFF09F101000990129802F086F800BFE3
:1023E000307A00F0010020B904F11601304600F007
:1023F0006BFA3146129801F069FB8046202206F103
:102400000C010AA8FDF76BFF08F0004008B1454633
:1024100063E0B8F1000F03D04FF0000901200990EC
:10242000099882B23146129801F008FA074607F07F
:10243000004008B13D4650E0B9F1000F0DDD0AA89B
:10244000FFF77AFF0290B8B2009004F11602DDE9BE
:102450000231129800F0AEF90546E80F00283BD192
:1024600094F8D7200B210AA804F067FA08F01802A4
:102470000C210AA804F061FA6068020C14210AA871
:1024800004F04EFBA08882B21A210AA804F048FB8F
:102490001C210AA8226804F023FB04AA03991298BD
:1024A00001F0F2FF054605F0004000B115E007EB32
:1024B000090081B20AAB04AA129802F019FF05467E
:1024C00004A91298FFF766FD8346E80F00B95D4640
:1024D00005F0004000B100E000BF00BF129803F01B
:1024E0000CFDE80F18B914B107EB0900A0822846CB
:1024F00015B0BDE8F08F70B504461BF0D8FEC4F8E7
:10250000A806D4F8A80630B10721D4F8A8061BF015
:10251000DBFE012500E00025284670BD2DE9F047CF
:10252000BCB08046894617461C46DDF810A1002045
:102530000090EC2101A8FDF7FAFEC12239460DF109
:102540001A00FDF7FFFE69464046FFF70BFF0290B9
:102550000098C00F20BB01AA49464046FFF71DFF67
:1025600000900098C00F30B994B1EC2201A9204628
:10257000FDF7B5FE0CE0404601F0D1FF00224046D9
:10258000029903F03EFC00200290404603F0D1FC8B
:10259000404601F04DFB05460098C00F00B900957C
:1025A0000098CAF800000098C00F08B9029E00E029
:1025B000002630463CB0BDE8F08700002DE9F0472A
:1025C0000546894600246F68D5F80880C8F30800DE
:1025D00010B9B8F1000F01D1424E19E0B7FBF8F085
:1025E00008FB107010B90FB1474502D13D4E761C63
:1025F0000EE040F2BC601BF069F8044634B140F2D2
:10260000BC612046FDF793FE002601E0354E083EF2
:102610002046FFF770FF012802D0324E083E20E02E
:10262000F00FF0B9286818B12868C4F8AC0610E0BB
:1026300038461BF04BF8C4F8AC06D4F8AC0630B101
:1026400094F8B50640F0020084F8B50601E0254E86
:10265000083ED4F8AC0620B13946D4F8AC06FDF7F4
:1026600066FEF00F58BB04F29C64A4F81480B7FB1C
:10267000F8F0E082E18A01EB810188001BF026F886
:1026800020602068A4F29C64D0B194F8B50640F0B4
:10269000010084F8B506204601F06DFEA869C4F873
:1026A000A006E86928B194F8B50640F0100084F857
:1026B000B50628696060E86820606869A06001E08C
:1026C000084E083E06F0004020B11CB1204600F044
:1026D00019FA0024B9F1000F01D0C9F800602046B2
:1026E000BDE8F0870B0001812DE9F04705460E4655
:1026F00090469946DDF820A020212846FDF717FED8
:1027000009F0BF020021284604F017F90F220B211F
:10271000284604F012F952460D21284604F00DF91E
:102720000027012412E0474507D216F8010B28556F
:1027300016F8011B601C295406E0474504D9FF2008
:102740002855FF21601C29547F1CA41C052FEAD3A7
:102750000E2412E0474507D216F8010B285516F84B
:10276000011B601C295406E0474504D9FF20285569
:10277000FF21601C29547F1CA41C0B2FEAD31C24AE
:1027800012E0474507D216F8010B285516F8011B31
:10279000601C295406E0474504D9FF202855FF2135
:1027A000601C29547F1CA41C0D2FEAD30020BDE817
:1027B000F08700002DE9FF4FF1B091469A460027BF
:1027C0000024002619E0C4F1C10209EB040103ABA7
:1027D00003EB460003F088FC8046B8F1000F01DDF2
:1027E000444400E00DE003A931F8160001F0A0FD1B
:1027F0000644C12E01DD334F03E019F80400002820
:10280000E1D100BFF80F002858D10D2096FBF0F55C
:1028100096FBF0F100FB116BBBF1000F01D06D1CBA
:1028200001E04FF00D0B6CAA7299719801F02CFE2B
:102830000746F80F002841D1681E00EB800101EB2C
:10284000C00003A901EB400002902C4629E0AC42F5
:102850000ED123465A46CDF800A064A80299FFF78E
:1028600043FF9DF8900140F040008DF8900107E093
:1028700023460D22CDF800A064A80299FFF734FF8B
:1028800002980D3802902A1B7E98111864AB6CAA2E
:10289000719802F02DFD074607F0004000B102E0FC
:1028A000641E002CD3DC00BF6CA97198FFF772FB8B
:1028B00001900198C00F00B9019F00BF384675B064
:1028C000BDE8F08F3A000A822DE9F05F04468A469F
:1028D0004FF0080B002084F82C00062084F82D000F
:1028E000A06840F01900A0605046FDF741FD1FFAB6
:1028F00080F90025A8464E4608E01AF805002E2863
:1029000002D008F1010800E02E466D1C4D45F4DBB5
:10291000B9F10C0F09DCA9EB0800012805DCA9EBD3
:102920000600042801DC082E03DDA06820F010005A
:10293000A0600025A84665E01AF8087007B963E0B2
:1029400035B92E2F04D1A06820F00800A06057E010
:10295000B04511D194F82D00A84201DD84F82D5026
:1029600005E0202228466D1C04F10C010A54082DB4
:10297000F7DB4FF0100B42E0082D0DD1B0450BDC1A
:10298000B0461AF8087007B93EE008F10100804629
:102990001AF800704FF0100B384603F017FC20B9FE
:1029A000A06820F00800A0602AE0612F13DB7A2FD6
:1029B00011DCA7F12000C7B2BBF1000F06D094F8DC
:1029C0002C0040EA0B0084F82C0013E0A06820F0F3
:1029D0000800A0600EE0412F0CDB5A2F0ADC94F8AF
:1029E0002C0000EA0B0018B1A06820F00800A060DD
:1029F0004FF0000B28466D1C04F10C010F5400BF72
:102A000008F101080B2D97DB00BF1EB9062D01DA76
:102A100084F82D5005E0202228466D1C04F10C019D
:102A20000A540B2DF7DB94F82D00B04203DD002E85
:102A300001DD84F82D6094F82D00484501DD84F80F
:102A40002D90BDE8F09F0000F8B504460E4600202A
:102A50000090E06B28B969462046FFF7ABFBE063C6
:102A600006E01AF0CBFFE06B811BE1631AF0F0FF88
:102A70000098C00F68B9A06B58B9204601F04FFD0F
:102A800000226946204600F0FFFDA063204603F0C7
:102A900050FA0098C00F68BB94F854000C2829D154
:102AA00002222046216A01F057F9054615B912485D
:102AB00000901FE00021A86803F07AFE0F498842C9
:102AC00013D14FF4F271A86803F072FE0C498842EA
:102AD0000BD1E26B4FF4F471A86804F011F8A26B0B
:102AE0004FF4F671A86804F00BF82946204602F06E
:102AF000E6FC00900098F8BD04000C815252614140
:102B00007272416170B504460CB90D4D15E0002597
:102B100094F8B50600F0010018B1D4F89C061AF03C
:102B2000B5FF94F8B50600F0020018B1D4F8AC0671
:102B30001AF0ACFF20461AF0A9FF284670BD00002D
:102B4000020002812DE9FF4104460D4600260020C7
:102B50000390606BA84206D194F854000C2802D070
:102B60002C48039006E0E06B20B903A92046FFF74C
:102B700021FBE0630398C00F002846D1E06B18B931
:102B800024480E30039040E0204601F0C8FC03AA20
:102B90002946204600F0A2FB80460398C00F48BBA0
:102BA000012203A9204600F06FFD06460398C00FDE
:102BB00000BB68460221002202604260017200BF31
:102BC0006B4632464146204603F0BAFE0390694602
:102BD000204602F0AEFC07460398C00F00B90397E9
:102BE00001212046FFF730FF07460398C00F00B9C8
:102BF000039700BF204603F09CF90398C00F20B94B
:102C000031462046FFF7D6F90390039804B0BDE89B
:102C1000F081000038000B822DE9F04FC1B004466E
:102C200088462768B7F85000396C00FB01F908EBBB
:102C30000900401EB0FBF9FA00250020059094F829
:102C4000280000F00200022802D05A4805902BE02C
:102C5000606848BBA06838BB05A92068FFF782FB05
:102C600060610598C00FF8B9618D06AB3846226ADD
:102C700001F05EFA05900598C00FA8B96069079049
:102C800000200090618D06AB3846226A02F0A0FB5E
:102C900005900598C00F38B96069A0600120E06018
:102CA000002020616069A0610598C00F48B9E06804
:102CB00038B905AB04F118023846A16801F06CF987
:102CC000E0600598C00F002870D1E06850456DD2D3
:102CD000E068AAEB000B6669384601F020FC05AA03
:102CE0003146384600F0FAFA01900598C00F0028E6
:102CF0003AD100252DE0012205A9384600F0C4FC98
:102D000006460598C00F18B916B92A482330059011
:102D1000059800F0004000B11DE0022102A801F07A
:102D2000DFFB02AB32463846019903F009FE0590FD
:102D3000059800F0004000B10DE002A9384602F00D
:102D4000F8FB0590059800F0004000B103E0019603
:102D50006D1C5D45CFDB00BF0598C00F08B9019819
:102D6000A061E0682844E060384603F0E2F82946B4
:102D70003846FFF769FE00900598C00F08B9009823
:102D80000590D4E90301401E814205D1D4E9050133
:102D9000884201D0A0696061384600F049FF009088
:102DA0000598C00F08B90098059000BF059841B07C
:102DB000BDE8F08F23000A832DE9F04706460F4651
:102DC0004FF0000A57B900BF502080F31188BFF3BD
:102DD0004F8FBFF36F8F00BF00BFFEE730782F2803
:102DE00004D0314631A018F027F95CE04FF0FF34F1
:102DF0003046FDF7BDFA05463448806908B900F051
:102E0000EFF8012D01D100241CE0DFF8C09009F19A
:102E100018094FF001080FE0D9F81000A84207D1B7
:102E20002A4631464846FDF7B8FA08B9444607E055
:102E300008F1010809F11809244880694045EBDCD4
:102E400000BF00BF002C09DA20488069012805DB9B
:102E5000012231461EA018F0EFF823E01BF088F99C
:102E6000002C05DA194884698069401C174988617B
:102E700004EB4401154A02EBC10010223146FDF774
:102E800061FA04EB4400114901EBC000056104EB59
:102E900044010E4A02EBC101B86848611CF0F4F825
:102EA0004FF0010A00BF5046BDE8F08746465F4636
:102EB000535F4164643A204E656564206120222F8F
:102EC000223A20272573270A000000001C26012033
:102ED00046465F46535F4164643A205461626C65C4
:102EE0002066756C6C202725732720286D6178205B
:102EF0003D202564290A00000148806970470000D0
:102F00001C2601202DE9F04706460D46254C30468B
:102F1000FDF72EFA8146002028606860A860E8600E
:102F200001271DE02069484518DC3146204622690A
:102F3000FDF733FA90B92069305C18B12069305C34
:102F40002F280BD12069305C10B91748686002E067
:102F50002069304468606069A86006E07F1C18340E
:102F6000104818388069B842DCDC00BF0D481838BA
:102F70008069B84204D16E600A4818384069A86078
:102F8000A86820B190F8571009B1012100E0002194
:102F900011B14FF0010801E04FF000084046BDE8D4
:102FA000F087000034260120FAB4060870B5044604
:102FB0000E46002C03DB09488069A04201DC002595
:102FC00009E004EB4400054A02EBC0011822304638
:102FD000FDF785F90125284670BD00001C2601205B
:102FE00010B51C210648FDF7A2F9012004498861AB
:102FF00004490348FDF7DEF901200149086110BDCD
:103000001C260120FAB406082DE9F05F05468A4621
:103010001446984622465146284602F0EBFD81466A
:103020004FEAD97000285DD120225146284603F08E
:10303000E4FB07462846A168FFF7AAF8834620224A
:103040005146284603F0C5FB0BEB000695F85400EB
:103050000C280DD06168686B814209D1B5F8500029
:10306000296C48434009BAFBF0F1286C01FB00666B
:103070003146284603F0FDFB834620223946284688
:1030800003F0DAFB0BEB0006206940B12069006811
:10309000B04204D12069007B00F00200A8B1206991
:1030A00030B12846216902F00AFA814600202061E9
:1030B0004FEAD97048B901223146284600F04CFE4B
:1030C0002061206908B9DFF82490B8F1000F09D019
:1030D000206938B12069806800EB47112022404602
:1030E000FDF7FDF84846BDE8F09F000004000182AE
:1030F00070B5044661692068FFF74AF80546012269
:10310000E169206803F065FB05442946206803F067
:10311000BAFB05460122E169206803F08DFB0544F6
:10312000284670BD2DE9F047FEB004468846154696
:103130009A4600207D907C90302135A8FDF7F7F865
:10314000606B359000203490012D02DC4FF00109B6
:1031500042E0681E18F800005C2804D0681E18F8C9
:1031600000002F2801D1681E85B24FF00009D4F865
:10317000A00601F07FFF002627E006EBC60101EB69
:10318000061204F1580101EBC200FDF7F1F8A84264
:103190001AD106EBC60101EB061204F1580101EB4E
:1031A000C2002A46414603F0D1FC68B106EBC600D6
:1031B00000EB061104F1580000EBC100D0F8C40088
:1031C00035904FF0010902E0761C082ED5DB00BFD8
:1031D000D4F8A00602F0CBF9B9F1000F72D17CABA4
:1031E0007DAA03A94046009503F0DFFC074600BF17
:1031F0000020ADF8180134A841A910233A46CDE9C2
:10320000001035A9204600F082F83590359800B9B5
:1032100009E07CAB7DAA03A94046009503F0C5FCFC
:103220000746002FE4D100BF47B13498C00F18B152
:10323000349880B2342801D1274834903498C00F94
:10324000E8BB3598D8B3D4F8A00601F013FFC12D20
:1032500032DAD4F8981601EBC10202EB011204F144
:10326000580101EBC2002A464146FDF738F800211B
:10327000D4F8980600EBC00202EB001204F15800EB
:1032800000EBC20041553599D4F8980600EBC00216
:1032900002EB001204F1580000EBC200C0F8C410A9
:1032A000D4F89806401CC4F89806D4F89806082864
:1032B00002D30021C4F89816D4F8A00600E001E07B
:1032C00002F055F9BAF1000F02D03498CAF80000A4
:1032D00035987EB0BDE8F08722000E82F8B506462C
:1032E0000C46154627462146304603F0FDFA40B904
:1032F0006B464FF0FF322146304602F0C3FC0746D2
:1033000001E000200090009828603846F8BD2DE9C3
:10331000FF4F8FB00D461C9C0027002008900690A0
:1033200004F1D70A05900490039002901198FDF7DC
:103330001FF8009000980C300D2190FBF1F0C0B206
:10334000401C0990287A00F01800182802D10120AA
:10335000079001E000200790002084F8D700287A29
:1033600000F0200018B14FF0FF30686001E000204D
:1033700068600AAA29680F9801F086F881464FEA2A
:10338000D970002878D1A08216E12FB10E988068FC
:1033900000F5F070B8420DD8A18A00230AAA0F9850
:1033A000FFF732FE81464FEAD97000B10AE10E986C
:1033B000876800E02037384603F0B8FA00B101E131
:1033C000384603F089FA88B1002084F8D70068688D
:1033D00000280ADA0898401C08900999884204D10C
:1033E000A18A0998401E081A6860E2E0002008904F
:1033F00014F8D70F01900B21384603F0F9F820702C
:1034000014F8D70900F00F000F287DD1039820B1E0
:10341000019800F00F000F280ED0387820F04000FF
:1034200003900290A08A05900D21384603F0E0F841
:10343000049000200AF8010C0398002862D0039839
:10344000401E0390039800EB800101EBC00104F1E2
:1034500016000E184FF0000812E0AAEB06024FEA21
:103460004800401CC119304602F0BCFD8346BBF148
:10347000000F02DD5E4401E0B0E000BF08F101088A
:10348000B8F1050F01DA5645E7D34FF0000811E017
:10349000AAEB06024FEA48000E30C119304602F08E
:1034A000A1FD8346BBF1000F01DD5E4400E000BFDB
:1034B00008F10108B8F1060F01DA5645E8D34FF0DC
:1034C000000811E0AAEB06024FEA48001C30C119BF
:1034D000304602F087FD8346BBF1000F01DD5E44FC
:1034E00000E000BF08F10108B8F1020F01DA56450B
:1034F000E8D30298401E0399884203D1564501D271
:103500000020307055E0FFE794F8D70000F0080085
:10351000082802D1002002904BE0029828B13846DA
:10352000FEF70AFF049988420FD0386844F8160F56
:103530007868606038892081B87AA072163C04F1FE
:10354000160001F0ADFE0020029094F8D700129909
:10355000084088422AD1079850B10B2205F10C018E
:103560003846FCF71AFF18B9A86840F00600A860B2
:1035700004F1160111981AF09DF9B8B9029850B1EA
:103580000AAB2146059A0F9801F088FD814609F0A3
:10359000004040B116E03A4621460F9801F04AFE3D
:1035A000A08A401CA082606806900BE00020029078
:1035B00000BFA08A401CA082A08A4FF6FF718842FB
:1035C000FFF6E3AE00BF0AA90F98FEF7E3FC0090F8
:1035D0004FEAD97008B9DDF8009000BF4FEAD97002
:1035E00050B96868002801DAA08A6860079818B1A5
:1035F000A86840F00200A8601D9810B11D98C0F89E
:103600000090069813B0BDE8F08F0000F8B50546AD
:103610000C4616463046FCF7ABFE87B2EC2120463E
:10362000FCF785FE15B91748009029E095F8B50616
:1036300000F0200018B11348801D009020E06B4678
:103640003A4631462846FFF76DFD20610098C00FCD
:10365000B0B9206918B90B483430009010E004F17B
:10366000D8022846216900F00FFF00900098C00F93
:1036700030B90020A0822146284600F075F900905C
:103680000098F8BD020004822DE9F74F86B0044689
:10369000002700260120039094F854000C2801D143
:1036A000042000E002208246206B02900121204687
:1036B00000F048FE08B9012000E0002001900198C8
:1036C00010B1204600F02BFFA56B94F854000C2895
:1036D00025D1A06B18BB01222046216A00F03CFBDB
:1036E00006460EB9524F1AE00021B06803F04FF8B9
:1036F000504988420DD14FF4F271B06803F047F899
:103700004D49884205D14FF4F671B06803F03FF897
:1037100005463146204601F0D2FE07460026F80F46
:10372000002862D1B4F8B00690FBFAF905FB0AFB59
:10373000B4F85000BBFBF0F84BE0206900EB080147
:103740000122204600F008FB06460EB9384F43E040
:10375000B5FBF9F009FB1050059027E0029885426F
:1037600002D3334F123724E0B4F85000BBFBF0F122
:1037700000FB11B0049094F854000C2809D1B068F3
:10378000049903F004F80390039820F0704003902C
:1037900004E0B068049903F087F80390039800B937
:1037A00007E0D3446D1C0598401C059005984845DA
:1037B000D4D300BF3146204601F081FE07460026E3
:1037C00007F0004000B107E0039800B904E008F1F9
:1037D000010860694045B0D800BFF80F20B96069A2
:1037E000404501D1124F123700BF07F0004000B131
:1037F000002595B1089880B1681CA06300235A1E6B
:103800002946204603F09CF88046F80F00B9474649
:1038100007F0004000B1002500BF019810B120461C
:1038200002F087FB07980760284609B0BDE8F08FD3
:103830000400048452526141727241612DE9F04FDB
:1038400089B081460F4690460026B34600240020EA
:1038500008903868029003AA4846029900F014FEC6
:103860000546E80F002871D17868002801DB7868E8
:1038700000E0002004465BE02EB10798806800F568
:10388000F070B04221D8002303AA21464846FFF732
:10389000BBFB0546A8B2342807D148460299FFF77A
:1038A00051F905460120089046E005F0004000B1BE
:1038B00042E03EB90798806804F00F01202212FB15
:1038C000010603E00798866800E02036304603F0E2
:1038D0002DF8A8B1DDF80CA0B9F85010D9F84000C7
:1038E000484300FB0AF004EB0801B1EB501F04D978
:1038F00048460299FFF726F90546012008901BE08B
:10390000304602F0E9FF80B10BF1010080B283463E
:1039100040450CD103A94846FEF73CFB0546012073
:103920000890A8F10100241A06E04FF0000B641C77
:103930004FF6FF7084429FD300BF03A94846FEF7AD
:1039400029FB0190E80F00B9019D00BFE80F20B9E5
:10395000089808B1254600E0024D284609B0BDE8A8
:10396000F08F0000330007822DE9F04389B007464D
:103970000C4600260FB9544DA1E097F8B50600F0AB
:10398000200010B1504DAD1D99E000257FE036B10B
:10399000E8200059806800F5F070B0421ED8A18A76
:1039A000002304F1D8023846FFF72EFB054605F048
:1039B000004000B171E06EB9A08AC11700EB11712F
:1039C0000911A0EB0112E82109598968202303FBA2
:1039D000021604E0E8200059866800E020363046F0
:1039E00002F07AFF00B14FE0304602F09FFF10B1C5
:1039F000354D323551E00B21304602F0F9FD84F8A7
:103A0000D70094F8D70000F00F000F2822D13078AB
:103A100020F04008A08A00EB080101AB04F1D802B5
:103A20003846FFF7F1FA054605F0004000B134E0F2
:103A300001A802F051FF60B9A28A04F1D80321461F
:103A4000384601F02BFB054605F0004000B124E0AC
:103A500023E018E094F8D70000F00800082812D0FE
:103A600032462146384601F0E5FB0C21304602F093
:103A7000BFFD8146494604F11600FEF73DFAA08AD3
:103A8000401CA08209E000BFA08A401CA082A08A3E
:103A90004FF6FF718842FFF67AAF00BFA08A4FF65B
:103AA000FF71884201D1084D323504F1D801384602
:103AB000FEF770FA8146E80F00B94D4600BF284670
:103AC00009B0BDE8F0830000020005822DE9F04F47
:103AD000C7B082460C46002007900DF5867B039008
:103AE0000B2204F10C0143A8FCF7F9FB43A801F0F9
:103AF000D7FB207A00F0180018282ED1207A00F089
:103B0000020060B1207A00F0040010B14448079030
:103B100082E094F82C0040F0010007907CE007A8B8
:103B200008A900235A46CDE9001021465046FFF768
:103B3000EEFB81460798C00F18B1079880B2342871
:103B40006AD1B9F1000F05D194F82C0040F00100C2
:103B5000079061E0324807905EE00121A06821EA09
:103B6000101500BF002D3BD0042D05DC2A462DA1E9
:103B700005A817F089FA15E0039840B9DAF838007B
:103B80000390042103A800F0CFF9049004E002217F
:103B900004A800F0C9F90490BDF8102022A105A8DE
:103BA00017F072FA05A8FCF7E3FB1FFA80F8C8F1DA
:103BB000070794F82D00B84201DA94F82D707E22A0
:103BC00038467F1C04F10C010A54002606E005A8C3
:103BD000815DBA1904F10C008154761C4645F6DB70
:103BE0000B2204F10C0143A8FCF779FB43A801F078
:103BF00057FB07AB43AA5046216801F08AFF00B982
:103C000009E04FF6FF70854203DB0548401C079032
:103C100001E06D1CA6E700BF079847B0BDE8F08F34
:103C2000320009822564000025303458000000006D
:103C3000F8B504460CB9474F89E00027D4F8A00630
:103C400001F018FA00257AE005EB8501D4F89C060E
:103C500000EB8100C089002870D105EB8501D4F804
:103C60009C0600EB81008089C0F30020002865D00D
:103C70000120009005EB8502D4F89C0600EB820041
:103C8000836805EB8502D4F89C0650F822100122C7
:103C90002046FEF7C3F805EB8501D4F89C0600EB3F
:103CA0008100C06820F0FF00401C05EB8502D4F8BD
:103CB0009C1601EB8201C86005EB8501D4F89C06D7
:103CC00000EB8100C06820F4807005EB8502D4F819
:103CD0009C1601EB8201C86000262BE0B54228D07B
:103CE00006EB8601D4F89C0650F8210005EB85020E
:103CF000D4F89C1651F8221088421AD106EB86019E
:103D0000D4F89C0600EB8100007B012811D106EB62
:103D10008601D4F89C0600EB8100C06820F4807016
:103D200000F5807006EB8602D4F89C1601EB820148
:103D3000C860761CB4F8B206B042CFDC6D1CB4F893
:103D4000B206A84280DCD4F8A00601F010FC384688
:103D5000F8BD0000020005812DE9FC5F07468A4698
:103D6000904600254FF4FA6BB7F8B21601EB8101CB
:103D7000D7F89C0600EB81000190ACE0ABF1010BA1
:103D8000BBF1000F00D1A9E0D7F8A00601F072F94D
:103D9000D7F89C6609E03068504505D1B089C0F37A
:103DA000402008B1354603E0143601988642F2D32C
:103DB00000BF2DB3B8F1010F09D1287B012806D12E
:103DC000E889401CE881288A401C288286E0E8892E
:103DD000A0B908F00301E86861F30700E86008F0A3
:103DE000020028B1E86820F4807000F58070E86077
:103DF0000120E881288A401C28826FE0002562E0CB
:103E00000024D7F89C6615E0F08900B111E07068D5
:103E1000401C70605CB170686168884207D8706847
:103E20006168884204D1308A218A884200DD3446A4
:103E300000BF143601988642E6D3E4B3A089C0F3EC
:103E4000002060B10120009002463846A368216836
:103E5000FDF7E4FF8146B9F1000F00DA3EE0B8F16A
:103E6000420F05D1B7F8B016A068FCF760FA0CE075
:103E700001200090024651463846A368FDF788FFAE
:103E80008146B9F1000F00DA28E008F00301E0688C
:103E900061F30700E06001202082002060600120C3
:103EA000E081C4F800A04FEA5801E06861F30820FF
:103EB000E060E06800E006E020F4007000F50070CB
:103EC000E06025460AE0D7F8A00601F050FB0A2181
:103ED0003846FDF7F3FF002D3FF450AF00BFBBF1B4
:103EE000000F03DDD7F8A00601F041FB25B94246DB
:103EF000514603A017F0A0F82846BDE8FC9F00003B
:103F000046465F4765744275666665725B30782524
:103F1000585D3A206661696C6564206D6F64652048
:103F2000307825580A00000030B502460B460020C4
:103F30000DE012F8014BC5B284EA0501064C645C41
:103F400084EA1024054D6D5C04EB0524A0B21C1E10
:103F5000A3F10103EDD130BDF0B10608F0B20608BF
:103F600010B502460B464FF0FF310CE012F8010B82
:103F70004840C0B2074C54F820006FF07F4404EA78
:103F8000112480EA0401181EA3F10103EED1C843F5
:103F900010BD0000F0AD06082DE9FF4180460D463A
:103FA00014461E46002700200090012101A800F0C1
:103FB00092FA404600F0B3FA0DE001AB6A4629469A
:103FC000404602F037FB0546009800F0004008B17B
:103FD000002706E07F1C2946404602F085FC0028A9
:103FE000EBD000BF04B1256001A9404601F0A1FA61
:103FF0000090404601F09DFF00983060384604B0C4
:10400000BDE8F0812DE9FF5F06460F4606F10C0979
:1040100000BF802F01D3424D7CE001223046D9F809
:104020000010FFF799FE044614B93D4D0C3D71E0B8
:1040300008223CA1A068FCF7B0F948B121463046FF
:1040400001F03DFA0546E80F08B9354D6D1E61E0F7
:104050004821A06802F0ACFB83465421A06802F01E
:10406000A7FB80461021A06802F0A2FB82460C212B
:10407000A06802F09DFB009000221021A06802F0D1
:104080003FFDA0680099FFF76BFF01905246102199
:10409000A06802F035FD2146304601F010FA0546D1
:1040A00005F0004000B135E00198824502D01C4D7A
:1040B0006D1D2FE007FB08F0B6F8B016B0FBF1F06D
:1040C00058440390B6F8B006B0FBF8F0B7FBF0F137
:1040D00000FB117000FB08F00290012230460399AA
:1040E000FFF73AFE044614B90D4D0C3D12E0A068EE
:1040F0000299203102F05CFBC9F8000021463046ED
:1041000001F0DDF90546E80F18B9D9F8000000B94B
:10411000034D00BF00BF284604B0BDE8F09F00007B
:1041200010000A81454649205041525400000000C9
:104130002DE9F0438DB080460E4617461C466A4670
:104140003946404600F0A0F90546E80F00283DD169
:1041500005AB6A4631464046FEF756FF0546E80F76
:1041600058BB05A802F0B8FB38BB05A802F0DEFB7F
:1041700008B1184D21E00B2105A802F039FA84F8A6
:10418000D70094F8D70000F00F000F2807D16B4636
:1041900032462146404600F081FF05460DE094F886
:1041A000D70000F00800082807D005AA214640469D
:1041B00001F040F8A08A401CA08269464046FDF705
:1041C000E9FE8146E80F00B94D4600BF28460DB014
:1041D000BDE8F083340003822DE9F84304468846A5
:1041E0000020009000210E460F46CCB1E06B50B984
:1041F000204600F094F969462046FDF7DBFFE063B6
:10420000204601F096FEE56BB4F85000216CA1FB4E
:1042100000020021A0FB056302FB053200FB012721
:10422000B8F1000F02D00098C8F8000030463946B7
:10423000BDE8F883014600203AE00A78572A1BD0EF
:104240000CDC422A30D004DC2B2A24D0412A2CD189
:104250001AE0442A24D0522A27D109E0612A12D038
:10426000622A20D0722A02D0772A1ED103E000BF32
:1042700040F001001AE000BF40F0020040F00800EA
:1042800040F0100012E000BF40F0020040F00400D7
:1042900040F008000AE040F0010040F0020005E0B4
:1042A00040F0800002E000BF00E000BF00BF491CFA
:1042B0000A78002AC1D170472DE9FE4F824689460F
:1042C00016461C464F464FF000080121684600F094
:1042D00007F900202060504600F021F900BF3D465C
:1042E0006B4622462946504602F0A4F9074620684C
:1042F00000F0004010B14FF000080DE0681C87424C
:1043000002D108F1010800E006E016B1B04500D185
:1043100002E0681C8742E2D000BF504601F009FE6F
:104320006946504601F005F920604046BDE8FE8F21
:10433000014601F47C42B2F5584F01D1022000E061
:10434000012070472DE9F04105460E461AF0EAFCBF
:10435000074606F0010050B1D5F8B80628B1D5F8E7
:10436000B806B84201D1012402E0002400E0002494
:104370002046BDE8F0812DE9F0410446D4F8AC6652
:10438000D4F89C56B4F8B20600EB800005EB800729
:10439000B4F8B20600EB800081002846FBF7C7FFA7
:1043A00004E0AE601435B4F8B0060644BD42F8D35C
:1043B000BDE8F0812DE9F84304460E4600BFE06BEE
:1043C00048B969462046FDF7F5FEE063009800F025
:1043D000004048B14DE00020009019F00FFBE06B69
:1043E0008119E16319F034FBA06B80B9204600F01D
:1043F00096F8002269462046FFF746F9A06320465A
:1044000001F097FD009800F0004000B131E094F811
:1044100054000C282CD102222046216AFFF79CFC74
:10442000054615B91548009022E00021A86802F061
:10443000BFF907464FF4F271A86802F0B9F9804657
:104440000F4887420ED10F4880450BD1E26B4FF4E5
:10445000F471A86802F054FBA26B4FF4F671A868DF
:1044600002F04EFB2946204601F029F8009000BFDB
:1044700000BF00BF0098BDE8F883000004000D8174
:104480005252614172724161F8B505460E461446BA
:1044900014212046FBF74BFF6B460022314628468D
:1044A000FFF77AFD20600098C00F90B96660A660A3
:1044B00095F854000C280CD06168686B814208D1D3
:1044C000696A286CB1FBF0F02060206808B901200F
:1044D00020600098F8BD00220260426001727047BF
:1044E0000022026042600172704738B5044600BF86
:1044F00042F21070009000231A460221D4F8A80658
:1045000019F04AFF0221D4F8A80619F0A2FE0546C8
:1045100005F002000028EBD000BF00BF38BD38B561
:10452000044601212046FFF70DFF08B9012000E0F5
:10453000002050B900BF502080F31188BFF34F8F87
:10454000BFF36F8F00BF00BFFEE700BF42F21070E5
:10455000009000231A460121D4F8A80619F01CFF88
:104560000121D4F8A80619F074FE054605F00100F3
:104570000028EBD01AF0D6FBC4F8B80600BF00BF85
:1045800038BD00000278E52A01D1052202700EE054
:10459000002108E00278084B5B5C9A4202D15F225E
:1045A000027002E0491C0A29F4DB00BF401C0278BB
:1045B000002AEDD170470000F0B406082DE9F04F55
:1045C00085B083468946002500200490DBF808600A
:1045D0008046009000BF16B9A848049044E106F157
:1045E0000C0406F2AC66707A00F0DF007072B288DC
:1045F000F38802FB03F13068A6F2AC66FBF797FE86
:104600004FF4C86104F14C00FBF791FE3046FFF710
:10461000B2FE0020C6F8A4066946304600F0BCFB96
:10462000804608F0004010B1CDF810801CE1B8F1D0
:10463000000F03D191480C30049015E1C14503DB14
:104640008E480E3004900FE109EB490101A800EB00
:10465000810ADAF800002060BAF80800C0F30720E9
:10466000EE2809D149463046FFF7CCFC0490049867
:1046700000F0004000B1F7E0012230462168FFF76A
:104680006BFB05461DB97D48801C0490ECE00B21B6
:10469000A86802F015F9A4F84400B4F84400C11762
:1046A00000EBD1514912A0EB412111B9B4F84410EB
:1046B00059B92946304600F002FF04900498C00F13
:1046C00010B96E480D300490CEE00E21A86802F0BB
:1046D000F7F8A4F84600B4F8461020680844606073
:1046E0001021A86802F0ECF884F84A001621A868A6
:1046F00002F0E6F8A0600D21A86801F07CFF60637D
:10470000B4F84400B6F8B01690FBF1F084F8490014
:104710001321A86802F0D4F8E060E06820B92021F5
:10472000A86802F045F8E060A06890B92421A86864
:1047300002F03EF8A0602C21A86802F039F8A062CF
:10474000A86850F8471FA1634168E163806820644E
:1047500009E00120A062A86850F82B1FA1634168FE
:10476000E16380682064B4F846102068084494F837
:104770004A10A26801FB020020623021A86802F002
:104780009FF82168084460612946304600F097FE92
:10479000B4F8440018B939480D30049064E0112190
:1047A000A86802F08DF807B20834A08F00EB47101C
:1047B000401EA18F90FBF1F020612169A06908449F
:1047C0006061E08F94F84210226801FB02002169C9
:1047D00008446168081AA060E06A083C18B92748D4
:1047E0000D30049040E0616B2069B0FBF1F0606235
:1047F000304617F0F1FF0490049800F0004000B13B
:1048000032E04FB994F848000C2805D01CA016F0EF
:1048100013FC0C2084F84800012084F84B00002091
:10482000E0623046FFF77BFE002204A93046FEF727
:104830002BFFE062304601F07CFB049800F0004062
:1048400038B1049880B2162802D10020E06200E05E
:104850000AE004A93046FDF7ADFC2063049800F09F
:10486000004000B100E000BF00BF0498C00F08B9CD
:1048700000200490049805B0BDE8F08F0200038189
:104880004E6F20726F6F74206469722C206D757387
:104890007420626520612046415433320A000000D2
:1048A0002DE9FF4FFBB00746894690460024302192
:1048B00033A8FBF73CFD08F0080018B1359840F02C
:1048C0002000359017B987483F9042E097F8B50629
:1048D00000F0200018B18348801D3F9039E000208F
:1048E0003F904846FBF744FD064609E019F80600EC
:1048F0005C2803D019F806002F2800D102E0761EAC
:10490000002EF3D100BF09EB0600411CC12202A812
:10491000FBF718FD06B9012602A933A8FDF7D4FF5D
:10492000B2B23FAB49463846FEF7FCFB33903398B2
:1049300038B908F0020060B149466BA016F07CFB64
:1049400007E03F98C00F20B93FA9384617F070FE26
:1049500004463F98C00F98BB84F828803FA840A920
:10496000002302AACDE9001033A93846FEF7CFFC98
:104970008246BAF1000F1AD102A8FBF7F9FC834670
:104980000DF58B70FBF7F4FC834510D1409870B99E
:1049900002A8FBF7EDFC83465A460DF58B7102A881
:1049A00002F0D4F8012802D1824600203F90BAF1EB
:1049B000000F18D108F0080018B94A481D303F9080
:1049C00011E03FA840AB02AA33A900903846FDF79A
:1049D000A5FD82463F98C00F28B9BDF81401401CC0
:1049E00080B2ADF814013F98C00FA8B99DF8D70167
:1049F000102806D108F0800018B93A481E303F90C0
:104A00000AE008F0060038B19DF8D70100F0010077
:104A100010B134481F303F903F98C00FE0BB276073
:104A20000020E0614198A060409860600020206113
:104A3000A06860610020E06233982062BDF8140134
:104A4000401E60850020E060A061606A20F00200E6
:104A50006062D7F8A00600F00DFBD7F8A45615B990
:104A6000C7F8A44620E000BFA868A168884214D116
:104A7000286A216A884210D1688D618D88420CD1E4
:104A800095F8280094F82810084300F0060020B19B
:104A900014481C303F9006E00AE0E86A08B9EC626E
:104AA00001E0ED6AE0E700BFD7F8A00600F05FFD87
:104AB0003F98C00F28B908F0100010B100206060C6
:104AC000E0613F98C00F20B114B1204618F0DEFF1E
:104AD00000247E9810B13F997E98016020467FB0F7
:104AE000BDE8F08F0200028346465F4F70656E5B43
:104AF00025735D3A2050617468206E6F7420666F74
:104B0000756E640A000000002DE9FF4F95B007465E
:104B100088461E46B7F8B006C11700EBD1514FEAE0
:104B2000612AB8691390002464201290002011902B
:104B3000C146179814900021B961BAE014B12068F9
:104B4000484519D054B12146384600F0B8FC1190C0
:104B50000024119800F0004000B1B0E0494661A087
:104B600016F06AFA012249463846FFF7F5F804467E
:104B700014B965481190A2E04FF4FF71A06801F0EC
:104B80003AFD049040F2FF11A06801F034FD03905B
:104B90000498552802D10398AA2805D05BA0DDE926
:104BA000032116F049FA8AE005A9A06800F05CFC30
:104BB0004FF0FF3B002563E005EB450105A800EB46
:104BC0008100406800B95AE005EB450105AA02EBF7
:104BD00081010989C1F3072018F0E0FA20B1BBF187
:104BE000000F00DAAB464AE005EB450005A951F895
:104BF000200000FB0AF0049005EB450001EB80006B
:104C0000406800FB0AF00390049848440290DDE9F4
:104C1000031001441498814208D80298404505D3F6
:104C2000179808EB00010298814208D20298009080
:104C30004A46294640A0049B16F0FEF91FE0326860
:104C4000511C02EB42023160311D01EB820005EB89
:104C5000450105AA02EB81030ECB80E80E00016836
:104C600049440160816821F4803101F5803181601F
:104C70003068012800DB05E06420129000BF6D1C45
:104C8000042D99DB00BFBBF1000F03DA3AA016F048
:104C9000D3F914E00BEB4B0005A951F8200000FB01
:104CA0000A890BEB4B0001EB8000406800FB0AF027
:104CB00014901298411E129100287FF43FAF00BF5C
:104CC00054B12146384600F0FAFB04901198C00F09
:104CD00008B90498119000BF1398B861119819B0E1
:104CE000BDE8F08F46465F50617273654578746524
:104CF0006E6465643A205265616420736563746F05
:104D0000722025750A00000004000F8146465F509E
:104D100061727365457874656E6465643A204E6FA0
:104D2000207369676E617475726520253032582C66
:104D3000253032580A00000050617274202564202A
:104D40006C6F6F6B7320696E73616E653A20756C62
:104D500054686973536563746F7220257520756C90
:104D60004F666673657420257520756C4E65787482
:104D70002025750A000000004E6F206D6F726520BF
:104D8000657874656E6465642070617274697469B5
:104D90006F6E730A000000002DE9F04F91B080465D
:104DA0000C464FF0000BD946D8F8180010900020A0
:104DB00020606060A060E06000BF012200214046EA
:104DC000FEF7CAFF074617B9DFF850920CE1002141
:104DD000C8F81810D7F808A09148C0F800A04FF400
:104DE000FF71504601F007FC552837D04FF4FF7192
:104DF000504601F000FCAA2830D00021504601F0B6
:104E0000FAFBEB2808D10221504601F0F4FB902870
:104E100002D14FF0010B21E040F2FF11504601F0AA
:104E2000EAFB06464FF4FF71504601F0E4FB022115
:104E30000390504601F0DFFB00210290504601F044
:104E4000DAFBCDE9006001467648DDE9022316F081
:104E5000F3F8DFF8C89109F10B09C5E004A9504641
:104E600000F002FB00254EE005EB450104AA02EB31
:104E700081010989C1F3072018F090F900B141E0E0
:104E800005EB450004A901EB8000007A802818D0CA
:104E900005EB450001EB8000007A90B165B90E2169
:104EA000504601F00DFD38B11021504601F0A3FB32
:104EB00010B14FF0010B24E0DFF8609109F10B090C
:104EC00026E005EB450004A901EB80004068C0B175
:104ED0002268511C02EB42022160211D01EB82007D
:104EE00005EB450104AA02EB81030ECB80E80E001E
:104EF000816821F4803181602168012900DB07E0AD
:104F000000BF00BF6D1C042D02DABBF1000FABD057
:104F100000BF09F0004010B92068012800DB63E001
:104F2000002521E005EB450104AA02EB8101098976
:104F3000C1F3072018F032F9A8B105EB450004AB26
:104F400003EB8000426805EB450053F82010234630
:104F50004046FFF7D9FD814609F0004010B92068AE
:104F6000012800DB42E06D1C042DDBDB206820B94A
:104F70002DA016F061F84FF0010BBBF1000F32D0FD
:104F80001521504601F037FB0390039818F02DF9D6
:104F900040B92EA0039916F04FF8DFF8809009F180
:104FA0000A0923E0261D002030601321B86801F0B3
:104FB00087FC7060706820B92021B86801F0F8FBA8
:104FC0007060B06820F0FF008030B060B06820F4FE
:104FD0007F4000F53060B060B06820F48030B06091
:104FE0000120206000BF00BF00BF00BF4FB13946A5
:104FF000404600F064FA06464FEAD97000B9B1465F
:1050000000BF1098C8F8180009F0004018B14846D1
:1050100011B0BDE8F08F2068FAE7000004000E81AF
:10502000680200209C00070846465F506172743A8F
:10503000206E6F20706172746974696F6E732C20BA
:10504000747279206173205042520A0046465F50C4
:105050006172743A204C6F6F6B73206C696B6520C2
:1050600050425220627574206D656469612025305C
:1050700032580A0010B5044654B900BF502080F3DE
:105080001188BFF34F8FBFF36F8F00BF00BFFEE7E4
:105090004FF0FF31204619F0A7FD10BD2DE9FF4F5D
:1050A0008FB00E469046002700BF41464A1C1FFAAB
:1050B00082F806AB129A0F98FDF7A6FF044604F09B
:1050C000004000B1B1E09DF8180020F0400A0D2129
:1050D00006A801F08DFA0E90A8F1010080B20190AF
:1050E0004FF000095DE0AAF10100019A1044A0EB25
:1050F000090106AB129A0F98FDF786FF044604F0EB
:10510000004000B14FE0002513E0C7F1C1020123C8
:1051100003EB45030DF1180C03EB0C0106F116032C
:10512000D81900F05FFF0446002C01DD381987B262
:105130006D1C052DE9DB002513E0C7F1C1020E232C
:1051400003EB45030DF1180C03EB0C0106F11603FC
:10515000D81900F047FF0446002C01DD381987B24A
:105160006D1C062DE9DB002513E0C7F1C1021C23ED
:1051700003EB45030DF1180C03EB0C0106F11603CC
:10518000D81900F02FFF0446002C01DD381987B232
:105190006D1C022DE9DB08F101001FFA80F809F10E
:1051A0000109D1459FDB00BF04F0004000B13CE0A5
:1051B000002106F11600C155A8F1010106AB129AB3
:1051C0000F98FDF721FF044604F0004000B12CE0E9
:1051D0000B2206A902A8FBF782F802A800F060F8EB
:1051E00006A8FDF7A9F80E99884204D002A906F195
:1051F0001600FBF7DFF81A2106A801F049FB8346E9
:10520000142106A801F044FB4BEA004070601C2109
:1052100006A801F0ABFA30600B2106A801F0E8F90E
:1052200086F8D700A6F8148000BF00BF204613B050
:10523000BDE8F08F2DE9F04107460C461546286879
:1052400044F8160F6868606028892081A87AA072E7
:10525000163C04F1160000F023F804F11600FBF7E9
:1052600087F80646314604F1160001F0F8FC1A21D1
:10527000284601F00DFB06461421284601F008FBE4
:1052800046EA004060601C21284601F06FFA206069
:105290000B21284601F0ACF984F8D700BDE8F08175
:1052A0000FB50246104613680093536801931389A3
:1052B000ADF80830937A8DF80A30002112E01DF81D
:1052C0000130202B04D1082900DB0DE0072108E084
:1052D000082902D12E2300F8013B1DF8013000F807
:1052E000013B491C0B29EADB00BF002303700FBD03
:1052F0002DE9F05F0546894614469A4622464946FE
:10530000284600F077FC80464FEAD87000285AD132
:1053100020224946284601F070FA07462846A1682F
:10532000FCF736FF834620224946284601F051FA11
:105330000BEB000695F854000C280DD06168686BE3
:10534000814209D1B5F85000296C48434009B9FBA6
:10535000F0F1286C01FB00663146284601F089FA1D
:10536000834620223946284601F066FA0BEB0006F8
:10537000206940B120690068B04204D12069007BF7
:1053800000F00200A8B9206930B12846216900F078
:1053900096F88046002020614FEAD87048B9022272
:1053A00031462846FEF7D8FC2061206908B9DFF8AD
:1053B0001C80206938B12169896801EB47102022DF
:1053C0005146FAF78CFF4046BDE8F09F0400018289
:1053D0002DE9F0438DB08046894616461C46149F41
:1053E0006A4631464046FFF74FF80546E80F002869
:1053F00032D105AB6A4649464046FDF705FE0546F3
:10540000E80F48BB69464046FCF7C4FD0546E80F77
:1054100010BB27B12022394605A8FAF760FF94F89F
:10542000D7200B2105A801F088FA6068020C14212E
:1054300005A801F075FB1A2105A8626801F070FB50
:105440001C2105A8226801F04BFB05AB6A464946C2
:105450004046FFF74DFF054669464046FCF79AFD7A
:1054600028460DB0BDE8F0832DE9F04107460C4613
:105470004FF4DF7500261EE02946384601F0BBF8E0
:10548000A16860F30701A160291D384601F0B3F857
:10549000A16860F30F21A16005F10C01384601F00D
:1054A00087F9606005F10801384601F081F9206054
:1054B000761C10350C34042EDEDBBDE8F081F8B527
:1054C00005460C460026D5F8A006FFF7D3FDA089B7
:1054D000C0F3002070B10120009002462846A36866
:1054E0002168FCF79BFC0646F00F18B9E06820F431
:1054F0008070E060E08908B1012000E0002050B930
:1055000000BF502080F31188BFF34F8FBFF36F8F20
:1055100000BF00BFFEE7E08910B1E089401EE081D6
:10552000D5F8A00600F023F82846FCF7BFFC30466B
:10553000F8BD2DE9F04780460D460027002411E014
:1055400055F824606EB14FF00009002045F82400A2
:1055500031464046FFF7B3FF8146F80F00B94F468A
:1055600000BF641C022CEBDB3846BDE8F08710B5A9
:10557000044654B900BF502080F31188BFF34F8F09
:10558000BFF36F8F00BF00BFFEE7204619F008FB96
:1055900010BD10B50446CCB100202061206820F079
:1055A00001002060A06870B1A06820B190F8571089
:1055B00009B1012100E0002111B1204600F0DAFC20
:1055C000A068FDF79FFA204618F060FA012010BD90
:1055D0002DE9F0418AB005464FF00008002017F091
:1055E00073FF3B49086008460068012804D039A0D1
:1055F00015F022FD002466E0142018F067F8044638
:105600001CB93DA015F018FD5DE014212046FAF705
:105610008EFE41484FF400720023D0E912613046FB
:10562000FAF72CFEE0603D48006820B9042018F02D
:10563000FBFF3A4908603A48206138480068002872
:1056400041D0202101A8FAF772FE4FF48050029059
:10565000C01003903348049033480590069400200E
:1056600008902E480068079009A901A8FCF7A6FF3A
:10567000A060A06840B92DA12DA015F0DDFC20464A
:10568000FFF787FF00241EE0206820F00100401C87
:105690002060206868F3CE102060204600F076F885
:1056A00020B92046FFF775FF00240CE005B92AA5B4
:1056B00021462846FDF780FB294628A015F0BCFCB2
:1056C000204600F0A7F820460AB0BDE8F0810000AF
:1056D0008002002046465F53444469736B496E69FB
:1056E000743A2070727653444D4D43496E6974206C
:1056F0006661696C65640A0046465F534444697399
:105700006B496E69743A204D616C6C6F6320666101
:10571000696C65640A000000580B00207C020020C0
:10572000424340415DCC0108CDCA010800000000A1
:1057300046465F53444469736B496E69743A204628
:10574000465F437265617465494F4D616E6765726E
:105750003A2025730A0000002F00000046465F53E0
:10576000444469736B496E69743A204D6F756E7469
:1057700065642053442D6361726420617320726FED
:105780006F7420222573220A0000000070B50446C1
:105790002088C0F3C7112046FEF710FF064606F02A
:1057A000004028B1314609A015F046FC00250AE06A
:1057B000206820F00200801C2060A068816909A098
:1057C00015F03AFC0125284670BD000046465F539F
:1057D000444469736B4D6F756E743A202530386C94
:1057E000580A00002A2A2A2A2A2A20467265655267
:1057F000544F532B46415420696E697469616C693A
:105800007A656420256C7520736563746F72730A02
:10581000000000002DE9FF5F07460FF2F00B0120AA
:10582000029017B9002002906CE0BC683BA015F014
:1058300003FC94F854000A2804D00B2805D00C2847
:1058400009D105E00FF2FC0B08E00FF2001B05E0A8
:105850000FF2001B02E00FF2041B00BF00BF03A900
:105860002046FEF7B9FCD4E90F0100FB01F5002644
:1058700064200021A5FB002306FB003005FB01018D
:10588000D4F81CC04FEA5C00101841F100016246D8
:105890000023CDE90001FAF7F1FC82464FF40062E3
:1058A0000023D4F81CC060461946FAF7E7FC80468E
:1058B0004FF40062002328463146FAF7DFFC8146A8
:1058C0003888C0F3C71127A015F0B6FB94F8541020
:1058D0005A4629A015F0B0FB04F144012DA015F0A3
:1058E000ABFB32A0A16915F0A7FB36A0216C15F027
:1058F000A3FB414639A015F09FFB524649463DA007
:1059000015F09AFB029804B0BDE8F09F756E6B6EBF
:105910006F776E20747970650000000052656164D5
:10592000696E672046415420616E642063616C6338
:10593000756C6174696E672046726565205370618D
:1059400063650A004641543132000000464154313B
:10595000360000004641543332000000554E4B4F94
:10596000574E0000506172746974696F6E204E72F8
:105970002020202538750A005479706520202020C9
:105980002020202020202025387520282573290A52
:1059900000000000566F6C4C6162656C2020202076
:1059A0002020202725387327200A0000546F7461B7
:1059B0006C536563746F727320202025386C750AF0
:1059C0000000000053656373506572436C75737417
:1059D00065722025386C750A0000000053697A65ED
:1059E000202020202020202020202025386C7520F9
:1059F0004D420A004672656553697A652020202071
:105A000020202025386C75204D4220282025642038
:105A100070657263206672656520290A00000000C7
:105A2000F8B505460E4617462846FCF787FA00905B
:105A30000098C00F30BB2868FEF7FAF80090009875
:105A4000C00FF8B90FB934460CE0012F02D1E86954
:105A5000841907E0022F02D16868841902E00C481B
:105A6000009000240098C00F60B9002C0BDB686820
:105A7000A04208DBE869A04208D0EC6169462846EC
:105A800000F008F802E00248401C00900098F8BDC1
:105A90002D0012832DE9F84304460F46D4F8008008
:105AA00001224046E16900F0A9FD05460020009072
:105AB0002069A8420ED24046FEF731FD20692A1A1D
:105AC0006B464046616900F0DDF86061404600F0D9
:105AD00030FA0FE02069A8420CD94046FEF71FFDBE
